{
  "contractName": "QuizPlatform",
  "abi": [
    {
      "anonymous": false,
      "inputs": [
        {
          "indexed": true,
          "internalType": "uint256",
          "name": "quizId",
          "type": "uint256"
        },
        {
          "indexed": true,
          "internalType": "address",
          "name": "participant",
          "type": "address"
        }
      ],
      "name": "ParticipantAdded",
      "type": "event"
    },
    {
      "anonymous": false,
      "inputs": [
        {
          "indexed": true,
          "internalType": "uint256",
          "name": "quizId",
          "type": "uint256"
        }
      ],
      "name": "QuizClosed",
      "type": "event"
    },
    {
      "anonymous": false,
      "inputs": [
        {
          "indexed": true,
          "internalType": "uint256",
          "name": "quizId",
          "type": "uint256"
        },
        {
          "indexed": true,
          "internalType": "address",
          "name": "organizer",
          "type": "address"
        },
        {
          "indexed": false,
          "internalType": "string",
          "name": "title",
          "type": "string"
        },
        {
          "indexed": false,
          "internalType": "string",
          "name": "description",
          "type": "string"
        },
        {
          "indexed": false,
          "internalType": "uint256",
          "name": "entranceFee",
          "type": "uint256"
        },
        {
          "indexed": false,
          "internalType": "uint256",
          "name": "pricePool",
          "type": "uint256"
        },
        {
          "indexed": false,
          "internalType": "uint256",
          "name": "timer",
          "type": "uint256"
        }
      ],
      "name": "QuizCreated",
      "type": "event"
    },
    {
      "inputs": [
        {
          "internalType": "uint256",
          "name": "",
          "type": "uint256"
        },
        {
          "internalType": "address",
          "name": "",
          "type": "address"
        }
      ],
      "name": "quizParticipants",
      "outputs": [
        {
          "internalType": "bool",
          "name": "",
          "type": "bool"
        }
      ],
      "stateMutability": "view",
      "type": "function",
      "constant": true
    },
    {
      "inputs": [
        {
          "internalType": "uint256",
          "name": "",
          "type": "uint256"
        }
      ],
      "name": "quizzes",
      "outputs": [
        {
          "internalType": "string",
          "name": "title",
          "type": "string"
        },
        {
          "internalType": "string",
          "name": "description",
          "type": "string"
        },
        {
          "internalType": "string",
          "name": "imageUrl",
          "type": "string"
        },
        {
          "internalType": "uint256",
          "name": "entranceFee",
          "type": "uint256"
        },
        {
          "internalType": "uint256",
          "name": "pricePool",
          "type": "uint256"
        },
        {
          "internalType": "uint256",
          "name": "timer",
          "type": "uint256"
        },
        {
          "internalType": "address",
          "name": "organizer",
          "type": "address"
        },
        {
          "internalType": "bool",
          "name": "isActive",
          "type": "bool"
        }
      ],
      "stateMutability": "view",
      "type": "function",
      "constant": true
    },
    {
      "inputs": [],
      "name": "tfuelToken",
      "outputs": [
        {
          "internalType": "address",
          "name": "",
          "type": "address"
        }
      ],
      "stateMutability": "view",
      "type": "function",
      "constant": true
    },
    {
      "inputs": [],
      "name": "thetaToken",
      "outputs": [
        {
          "internalType": "address",
          "name": "",
          "type": "address"
        }
      ],
      "stateMutability": "view",
      "type": "function",
      "constant": true
    },
    {
      "inputs": [
        {
          "internalType": "string",
          "name": "title",
          "type": "string"
        },
        {
          "internalType": "string",
          "name": "description",
          "type": "string"
        },
        {
          "internalType": "string",
          "name": "imageUrl",
          "type": "string"
        },
        {
          "internalType": "uint256",
          "name": "entranceFee",
          "type": "uint256"
        },
        {
          "internalType": "uint256",
          "name": "pricePool",
          "type": "uint256"
        },
        {
          "internalType": "uint256",
          "name": "timer",
          "type": "uint256"
        },
        {
          "components": [
            {
              "internalType": "string",
              "name": "questionText",
              "type": "string"
            },
            {
              "internalType": "string",
              "name": "questionImg",
              "type": "string"
            },
            {
              "internalType": "string[]",
              "name": "options",
              "type": "string[]"
            },
            {
              "internalType": "uint256",
              "name": "correctOption",
              "type": "uint256"
            }
          ],
          "internalType": "struct QuizPlatform.Question[]",
          "name": "questions",
          "type": "tuple[]"
        },
        {
          "components": [
            {
              "internalType": "string",
              "name": "label",
              "type": "string"
            },
            {
              "internalType": "uint256",
              "name": "value",
              "type": "uint256"
            }
          ],
          "internalType": "struct QuizPlatform.Reward[]",
          "name": "rewards",
          "type": "tuple[]"
        }
      ],
      "name": "createQuiz",
      "outputs": [],
      "stateMutability": "nonpayable",
      "type": "function"
    },
    {
      "inputs": [
        {
          "internalType": "uint256",
          "name": "quizId",
          "type": "uint256"
        }
      ],
      "name": "participateInQuiz",
      "outputs": [],
      "stateMutability": "payable",
      "type": "function",
      "payable": true
    },
    {
      "inputs": [
        {
          "internalType": "uint256",
          "name": "quizId",
          "type": "uint256"
        },
        {
          "internalType": "uint256[]",
          "name": "answers",
          "type": "uint256[]"
        }
      ],
      "name": "submitAnswers",
      "outputs": [],
      "stateMutability": "nonpayable",
      "type": "function"
    },
    {
      "inputs": [
        {
          "internalType": "uint256",
          "name": "quizId",
          "type": "uint256"
        }
      ],
      "name": "getQuiz",
      "outputs": [
        {
          "internalType": "string",
          "name": "title",
          "type": "string"
        },
        {
          "internalType": "string",
          "name": "description",
          "type": "string"
        },
        {
          "internalType": "string",
          "name": "imageUrl",
          "type": "string"
        },
        {
          "internalType": "uint256",
          "name": "entranceFee",
          "type": "uint256"
        },
        {
          "internalType": "uint256",
          "name": "pricePool",
          "type": "uint256"
        },
        {
          "internalType": "uint256",
          "name": "timer",
          "type": "uint256"
        },
        {
          "internalType": "bool",
          "name": "isActive",
          "type": "bool"
        }
      ],
      "stateMutability": "view",
      "type": "function",
      "constant": true
    },
    {
      "inputs": [],
      "name": "getQuizzesCount",
      "outputs": [
        {
          "internalType": "uint256",
          "name": "",
          "type": "uint256"
        }
      ],
      "stateMutability": "view",
      "type": "function",
      "constant": true
    },
    {
      "inputs": [
        {
          "internalType": "uint256",
          "name": "quizId",
          "type": "uint256"
        },
        {
          "internalType": "address",
          "name": "participant",
          "type": "address"
        }
      ],
      "name": "isParticipant",
      "outputs": [
        {
          "internalType": "bool",
          "name": "",
          "type": "bool"
        }
      ],
      "stateMutability": "view",
      "type": "function",
      "constant": true
    }
  ],
  "bytecode": "0x6080604052731502b75f0ef25fa1fe5b79594da566047859645e6000806101000a81548173ffffffffffffffffffffffffffffffffffffffff021916908373ffffffffffffffffffffffffffffffffffffffff160217905550731502b75f0ef25fa1fe5b79594da566047859645e600160006101000a81548173ffffffffffffffffffffffffffffffffffffffff021916908373ffffffffffffffffffffffffffffffffffffffff1602179055503480156100b957600080fd5b50612610806100c96000396000f3fe6080604052600436106100915760003560e01c8063758d9b8911610059578063758d9b891461016c57806388409afa146101a95780639f0f8438146101ed578063a3f7e09614610218578063bf58330a1461025b57610091565b8063084a58181461009657806309cc25b5146100bf578063595fb9e6146100e857806360ef704f1461010457806362591bbe14610141575b600080fd5b3480156100a257600080fd5b506100bd60048036038101906100b89190611cdd565b610286565b005b3480156100cb57600080fd5b506100e660048036038101906100e19190611b4e565b6106d4565b005b61010260048036038101906100fd9190611c78565b610c1a565b005b34801561011057600080fd5b5061012b60048036038101906101269190611ca1565b610f46565b6040516101389190611f69565b60405180910390f35b34801561014d57600080fd5b50610156610f75565b6040516101639190611f17565b60405180910390f35b34801561017857600080fd5b50610193600480360381019061018e9190611ca1565b610f99565b6040516101a09190611f69565b60405180910390f35b3480156101b557600080fd5b506101d060048036038101906101cb9190611c78565b611001565b6040516101e4989796959493929190611f84565b60405180910390f35b3480156101f957600080fd5b5061020261121e565b60405161020f91906121bc565b60405180910390f35b34801561022457600080fd5b5061023f600480360381019061023a9190611c78565b61122b565b6040516102529796959493929190612017565b60405180910390f35b34801561026757600080fd5b5061027061146d565b60405161027d9190611f17565b60405180910390f35b6000600283815481106102c2577f4e487b7100000000000000000000000000000000000000000000000000000000600052603260045260246000fd5b906000526020600020906009020190506003600084815260200190815260200160002060003373ffffffffffffffffffffffffffffffffffffffff1673ffffffffffffffffffffffffffffffffffffffff16815260200190815260200160002060009054906101000a900460ff1661036f576040517f08c379a0000000000000000000000000000000000000000000000000000000008152600401610366906120fc565b60405180910390fd5b8060080160149054906101000a900460ff166103c0576040517f08c379a00000000000000000000000000000000000000000000000000000000081526004016103b79061211c565b60405180910390fd5b6000805b835181101561048457826006018181548110610409577f4e487b7100000000000000000000000000000000000000000000000000000000600052603260045260246000fd5b906000526020600020906004020160030154848281518110610454577f4e487b7100000000000000000000000000000000000000000000000000000000600052603260045260246000fd5b6020026020010151141561047157818061046d9061247f565b9250505b808061047c9061247f565b9150506103c4565b506000826006018054905060648361049c9190612335565b6104a69190612304565b905060006105a98285600701805480602002602001604051908101604052809291908181526020016000905b828210156105a057838290600052602060002090600202016040518060400160405290816000820180546105059061244d565b80601f01602080910402602001604051908101604052809291908181526020018280546105319061244d565b801561057e5780601f106105535761010080835404028352916020019161057e565b820191906000526020600020905b81548152906001019060200180831161056157829003601f168201915b50505050508152602001600182015481525050815260200190600101906104d2565b50505050611493565b90506000811180156105bf575080846004015410155b1561062757808460040160008282546105d8919061238f565b925050819055503373ffffffffffffffffffffffffffffffffffffffff166108fc829081150290604051600060405180830381858888f19350505050158015610625573d6000803e3d6000fd5b505b83600701600281548110610664577f4e487b7100000000000000000000000000000000000000000000000000000000600052603260045260246000fd5b906000526020600020906002020160010154846004015410156106cc5760008460080160146101000a81548160ff021916908315150217905550857f79e9a7dcc542d287d52a353ae39aa2f36a6a96932ff171d2f5742cf7a0869dcf60405160405180910390a25b505050505050565b60008060009054906101000a900473ffffffffffffffffffffffffffffffffffffffff1690508073ffffffffffffffffffffffffffffffffffffffff166323b872dd3330886040518463ffffffff1660e01b815260040161073793929190611f32565b602060405180830381600087803b15801561075157600080fd5b505af1158015610765573d6000803e3d6000fd5b505050506040513d601f19601f820116820180604052508101906107899190611b25565b6107c8576040517f08c379a00000000000000000000000000000000000000000000000000000000081526004016107bf9061215c565b60405180910390fd5b600060026001816001815401808255809150500390600052602060002090600902019050898160000190805190602001906108049291906115cc565b508881600101908051906020019061081d9291906115cc565b50878160020190805190602001906108369291906115cc565b50868160030181905550858160040181905550848160050181905550338160080160006101000a81548173ffffffffffffffffffffffffffffffffffffffff021916908373ffffffffffffffffffffffffffffffffffffffff16021790555060018160080160146101000a81548160ff02191690831515021790555060005b8451811015610a9257816006016040518060800160405280878481518110610906577f4e487b7100000000000000000000000000000000000000000000000000000000600052603260045260246000fd5b6020026020010151600001518152602001878481518110610950577f4e487b7100000000000000000000000000000000000000000000000000000000600052603260045260246000fd5b602002602001015160200151815260200187848151811061099a577f4e487b7100000000000000000000000000000000000000000000000000000000600052603260045260246000fd5b60200260200101516040015181526020018784815181106109e4577f4e487b7100000000000000000000000000000000000000000000000000000000600052603260045260246000fd5b60200260200101516060015181525090806001815401808255809150506001900390600052602060002090600402016000909190919091506000820151816000019080519060200190610a389291906115cc565b506020820151816001019080519060200190610a559291906115cc565b506040820151816002019080519060200190610a72929190611652565b506060820151816003015550508080610a8a9061247f565b9150506108b5565b5060005b8351811015610ba557816007016040518060400160405280868481518110610ae7577f4e487b7100000000000000000000000000000000000000000000000000000000600052603260045260246000fd5b6020026020010151600001518152602001868481518110610b31577f4e487b7100000000000000000000000000000000000000000000000000000000600052603260045260246000fd5b60200260200101516020015181525090806001815401808255809150506001900390600052602060002090600202016000909190919091506000820151816000019080519060200190610b859291906115cc565b506020820151816001015550508080610b9d9061247f565b915050610a96565b503373ffffffffffffffffffffffffffffffffffffffff166001600280549050610bcf919061238f565b7fe97fa6a747a198343c245b91fece060e32f43d15a00999eac5d21a9780e7bfbc8c8c8b8b8b604051610c0695949392919061209b565b60405180910390a350505050505050505050565b600060028281548110610c56577f4e487b7100000000000000000000000000000000000000000000000000000000600052603260045260246000fd5b9060005260206000209060090201905080600301543414610cac576040517f08c379a0000000000000000000000000000000000000000000000000000000008152600401610ca39061219c565b60405180910390fd5b8060080160149054906101000a900460ff16610cfd576040517f08c379a0000000000000000000000000000000000000000000000000000000008152600401610cf49061211c565b60405180910390fd5b6003600083815260200190815260200160002060003373ffffffffffffffffffffffffffffffffffffffff1673ffffffffffffffffffffffffffffffffffffffff16815260200190815260200160002060009054906101000a900460ff1615610d9b576040517f08c379a0000000000000000000000000000000000000000000000000000000008152600401610d929061213c565b60405180910390fd5b60016003600084815260200190815260200160002060003373ffffffffffffffffffffffffffffffffffffffff1673ffffffffffffffffffffffffffffffffffffffff16815260200190815260200160002060006101000a81548160ff0219169083151502179055503373ffffffffffffffffffffffffffffffffffffffff16827f12246ba2398106df92bc0281a1eece14e5b8516c5c3dab76205391650e39fddb60405160405180910390a36000600160009054906101000a900473ffffffffffffffffffffffffffffffffffffffff1690508073ffffffffffffffffffffffffffffffffffffffff166323b872dd333085600301546040518463ffffffff1660e01b8152600401610eb093929190611f32565b602060405180830381600087803b158015610eca57600080fd5b505af1158015610ede573d6000803e3d6000fd5b505050506040513d601f19601f82011682018060405250810190610f029190611b25565b610f41576040517f08c379a0000000000000000000000000000000000000000000000000000000008152600401610f389061217c565b60405180910390fd5b505050565b60036020528160005260406000206020528060005260406000206000915091509054906101000a900460ff1681565b60008054906101000a900473ffffffffffffffffffffffffffffffffffffffff1681565b60006003600084815260200190815260200160002060008373ffffffffffffffffffffffffffffffffffffffff1673ffffffffffffffffffffffffffffffffffffffff16815260200190815260200160002060009054906101000a900460ff16905092915050565b6002818154811061101157600080fd5b90600052602060002090600902016000915090508060000180546110349061244d565b80601f01602080910402602001604051908101604052809291908181526020018280546110609061244d565b80156110ad5780601f10611082576101008083540402835291602001916110ad565b820191906000526020600020905b81548152906001019060200180831161109057829003601f168201915b5050505050908060010180546110c29061244d565b80601f01602080910402602001604051908101604052809291908181526020018280546110ee9061244d565b801561113b5780601f106111105761010080835404028352916020019161113b565b820191906000526020600020905b81548152906001019060200180831161111e57829003601f168201915b5050505050908060020180546111509061244d565b80601f016020809104026020016040519081016040528092919081815260200182805461117c9061244d565b80156111c95780601f1061119e576101008083540402835291602001916111c9565b820191906000526020600020905b8154815290600101906020018083116111ac57829003601f168201915b5050505050908060030154908060040154908060050154908060080160009054906101000a900473ffffffffffffffffffffffffffffffffffffffff16908060080160149054906101000a900460ff16905088565b6000600280549050905090565b6060806060600080600080600060028981548110611272577f4e487b7100000000000000000000000000000000000000000000000000000000600052603260045260246000fd5b906000526020600020906009020190508060000181600101826002018360030154846004015485600501548660080160149054906101000a900460ff168680546112bb9061244d565b80601f01602080910402602001604051908101604052809291908181526020018280546112e79061244d565b80156113345780601f1061130957610100808354040283529160200191611334565b820191906000526020600020905b81548152906001019060200180831161131757829003601f168201915b505050505096508580546113479061244d565b80601f01602080910402602001604051908101604052809291908181526020018280546113739061244d565b80156113c05780601f10611395576101008083540402835291602001916113c0565b820191906000526020600020905b8154815290600101906020018083116113a357829003601f168201915b505050505095508480546113d39061244d565b80601f01602080910402602001604051908101604052809291908181526020018280546113ff9061244d565b801561144c5780601f106114215761010080835404028352916020019161144c565b820191906000526020600020905b81548152906001019060200180831161142f57829003601f168201915b50505050509450975097509750975097509750975050919395979092949650565b600160009054906101000a900473ffffffffffffffffffffffffffffffffffffffff1681565b6000605083101580156114a7575060648311155b156114f957816002815181106114e6577f4e487b7100000000000000000000000000000000000000000000000000000000600052603260045260246000fd5b60200260200101516020015190506115c6565b6046831015801561150b5750604f8311155b1561155d578160018151811061154a577f4e487b7100000000000000000000000000000000000000000000000000000000600052603260045260246000fd5b60200260200101516020015190506115c6565b603c831015801561156f575060458311155b156115c157816000815181106115ae577f4e487b7100000000000000000000000000000000000000000000000000000000600052603260045260246000fd5b60200260200101516020015190506115c6565b600090505b92915050565b8280546115d89061244d565b90600052602060002090601f0160209004810192826115fa5760008555611641565b82601f1061161357805160ff1916838001178555611641565b82800160010185558215611641579182015b82811115611640578251825591602001919060010190611625565b5b50905061164e91906116b2565b5090565b8280548282559060005260206000209081019282156116a1579160200282015b828111156116a05782518290805190602001906116909291906115cc565b5091602001919060010190611672565b5b5090506116ae91906116cf565b5090565b5b808211156116cb5760008160009055506001016116b3565b5090565b5b808211156116ef57600081816116e691906116f3565b506001016116d0565b5090565b5080546116ff9061244d565b6000825580601f106117115750611730565b601f01602090049060005260206000209081019061172f91906116b2565b5b50565b600061174661174184612208565b6121d7565b9050808382526020820190508260005b85811015611786578135850161176c88826119c6565b845260208401935060208301925050600181019050611756565b5050509392505050565b60006117a361179e84612234565b6121d7565b9050808382526020820190508260005b858110156117e357813585016117c988826119f0565b8452602084019350602083019250506001810190506117b3565b5050509392505050565b60006118006117fb84612260565b6121d7565b9050808382526020820190508260005b8581101561184057813585016118268882611aac565b845260208401935060208301925050600181019050611810565b5050509392505050565b600061185d6118588461228c565b6121d7565b9050808382526020820190508285602086028201111561187c57600080fd5b60005b858110156118ac57816118928882611b10565b84526020840193506020830192505060018101905061187f565b5050509392505050565b60006118c96118c4846122b8565b6121d7565b9050828152602081018484840111156118e157600080fd5b6118ec84828561240b565b509392505050565b60008135905061190381612595565b92915050565b600082601f83011261191a57600080fd5b813561192a848260208601611733565b91505092915050565b600082601f83011261194457600080fd5b8135611954848260208601611790565b91505092915050565b600082601f83011261196e57600080fd5b813561197e8482602086016117ed565b91505092915050565b600082601f83011261199857600080fd5b81356119a884826020860161184a565b91505092915050565b6000815190506119c0816125ac565b92915050565b600082601f8301126119d757600080fd5b81356119e78482602086016118b6565b91505092915050565b600060808284031215611a0257600080fd5b611a0c60806121d7565b9050600082013567ffffffffffffffff811115611a2857600080fd5b611a34848285016119c6565b600083015250602082013567ffffffffffffffff811115611a5457600080fd5b611a60848285016119c6565b602083015250604082013567ffffffffffffffff811115611a8057600080fd5b611a8c84828501611909565b6040830152506060611aa084828501611b10565b60608301525092915050565b600060408284031215611abe57600080fd5b611ac860406121d7565b9050600082013567ffffffffffffffff811115611ae457600080fd5b611af0848285016119c6565b6000830152506020611b0484828501611b10565b60208301525092915050565b600081359050611b1f816125c3565b92915050565b600060208284031215611b3757600080fd5b6000611b45848285016119b1565b91505092915050565b600080600080600080600080610100898b031215611b6b57600080fd5b600089013567ffffffffffffffff811115611b8557600080fd5b611b918b828c016119c6565b985050602089013567ffffffffffffffff811115611bae57600080fd5b611bba8b828c016119c6565b975050604089013567ffffffffffffffff811115611bd757600080fd5b611be38b828c016119c6565b9650506060611bf48b828c01611b10565b9550506080611c058b828c01611b10565b94505060a0611c168b828c01611b10565b93505060c089013567ffffffffffffffff811115611c3357600080fd5b611c3f8b828c01611933565b92505060e089013567ffffffffffffffff811115611c5c57600080fd5b611c688b828c0161195d565b9150509295985092959890939650565b600060208284031215611c8a57600080fd5b6000611c9884828501611b10565b91505092915050565b60008060408385031215611cb457600080fd5b6000611cc285828601611b10565b9250506020611cd3858286016118f4565b9150509250929050565b60008060408385031215611cf057600080fd5b6000611cfe85828601611b10565b925050602083013567ffffffffffffffff811115611d1b57600080fd5b611d2785828601611987565b9150509250929050565b611d3a816123c3565b82525050565b611d49816123d5565b82525050565b6000611d5a826122e8565b611d6481856122f3565b9350611d7481856020860161241a565b611d7d81612584565b840191505092915050565b6000611d956011836122f3565b91507f4e6f742061207061727469636970616e740000000000000000000000000000006000830152602082019050919050565b6000611dd56012836122f3565b91507f5175697a206973206e6f742061637469766500000000000000000000000000006000830152602082019050919050565b6000611e156015836122f3565b91507f416c72656164792070617274696369706174696e6700000000000000000000006000830152602082019050919050565b6000611e556015836122f3565b91507f5468657461207472616e73666572206661696c656400000000000000000000006000830152602082019050919050565b6000611e956015836122f3565b91507f544655454c207472616e73666572206661696c656400000000000000000000006000830152602082019050919050565b6000611ed5601f836122f3565b91507f496e636f727265637420656e7472616e63652066656520696e20544655454c006000830152602082019050919050565b611f1181612401565b82525050565b6000602082019050611f2c6000830184611d31565b92915050565b6000606082019050611f476000830186611d31565b611f546020830185611d31565b611f616040830184611f08565b949350505050565b6000602082019050611f7e6000830184611d40565b92915050565b6000610100820190508181036000830152611f9f818b611d4f565b90508181036020830152611fb3818a611d4f565b90508181036040830152611fc78189611d4f565b9050611fd66060830188611f08565b611fe36080830187611f08565b611ff060a0830186611f08565b611ffd60c0830185611d31565b61200a60e0830184611d40565b9998505050505050505050565b600060e0820190508181036000830152612031818a611d4f565b905081810360208301526120458189611d4f565b905081810360408301526120598188611d4f565b90506120686060830187611f08565b6120756080830186611f08565b61208260a0830185611f08565b61208f60c0830184611d40565b98975050505050505050565b600060a08201905081810360008301526120b58188611d4f565b905081810360208301526120c98187611d4f565b90506120d86040830186611f08565b6120e56060830185611f08565b6120f26080830184611f08565b9695505050505050565b6000602082019050818103600083015261211581611d88565b9050919050565b6000602082019050818103600083015261213581611dc8565b9050919050565b6000602082019050818103600083015261215581611e08565b9050919050565b6000602082019050818103600083015261217581611e48565b9050919050565b6000602082019050818103600083015261219581611e88565b9050919050565b600060208201905081810360008301526121b581611ec8565b9050919050565b60006020820190506121d16000830184611f08565b92915050565b6000604051905081810181811067ffffffffffffffff821117156121fe576121fd612555565b5b8060405250919050565b600067ffffffffffffffff82111561222357612222612555565b5b602082029050602081019050919050565b600067ffffffffffffffff82111561224f5761224e612555565b5b602082029050602081019050919050565b600067ffffffffffffffff82111561227b5761227a612555565b5b602082029050602081019050919050565b600067ffffffffffffffff8211156122a7576122a6612555565b5b602082029050602081019050919050565b600067ffffffffffffffff8211156122d3576122d2612555565b5b601f19601f8301169050602081019050919050565b600081519050919050565b600082825260208201905092915050565b600061230f82612401565b915061231a83612401565b92508261232a576123296124f7565b5b828204905092915050565b600061234082612401565b915061234b83612401565b9250817fffffffffffffffffffffffffffffffffffffffffffffffffffffffffffffffff0483118215151615612384576123836124c8565b5b828202905092915050565b600061239a82612401565b91506123a583612401565b9250828210156123b8576123b76124c8565b5b828203905092915050565b60006123ce826123e1565b9050919050565b60008115159050919050565b600073ffffffffffffffffffffffffffffffffffffffff82169050919050565b6000819050919050565b82818337600083830152505050565b60005b8381101561243857808201518184015260208101905061241d565b83811115612447576000848401525b50505050565b6000600282049050600182168061246557607f821691505b6020821081141561247957612478612526565b5b50919050565b600061248a82612401565b91507fffffffffffffffffffffffffffffffffffffffffffffffffffffffffffffffff8214156124bd576124bc6124c8565b5b600182019050919050565b7f4e487b7100000000000000000000000000000000000000000000000000000000600052601160045260246000fd5b7f4e487b7100000000000000000000000000000000000000000000000000000000600052601260045260246000fd5b7f4e487b7100000000000000000000000000000000000000000000000000000000600052602260045260246000fd5b7f4e487b7100000000000000000000000000000000000000000000000000000000600052604160045260246000fd5b6000601f19601f8301169050919050565b61259e816123c3565b81146125a957600080fd5b50565b6125b5816123d5565b81146125c057600080fd5b50565b6125cc81612401565b81146125d757600080fd5b5056fea2646970667358221220f45e215e979df8910ac9586beada311536f5352609689691152b44f94396ceef64736f6c63430008000033",
  "immutableReferences": {},
  "source": "// SPDX-License-Identifier: MIT\r\npragma solidity ^0.8.0;\r\n\r\ninterface ERC20 {\r\n    function transfer(address recipient, uint256 amount) external returns (bool);\r\n    function transferFrom(address sender, address recipient, uint256 amount) external returns (bool);\r\n    function balanceOf(address account) external view returns (uint256);\r\n}\r\n\r\ncontract QuizPlatform {\r\n    address public thetaToken = 0x1502B75f0eF25Fa1Fe5b79594da566047859645e;\r\n    address public tfuelToken = 0x1502B75f0eF25Fa1Fe5b79594da566047859645e;\r\n\r\n    struct Question {\r\n        string questionText;\r\n        string questionImg;\r\n        string[] options;\r\n        uint correctOption;\r\n    }\r\n\r\n    struct Reward {\r\n        string label;\r\n        uint value;\r\n    }\r\n\r\n    struct Quiz {\r\n        string title;\r\n        string description;\r\n        string imageUrl;\r\n        uint entranceFee;\r\n        uint pricePool;\r\n        uint timer;\r\n        Question[] questions;\r\n        Reward[] rewards;\r\n        address organizer;\r\n        bool isActive;\r\n    }\r\n\r\n    Quiz[] public quizzes;\r\n    mapping(uint => mapping(address => bool)) public quizParticipants;\r\n\r\n    event QuizCreated(uint indexed quizId, address indexed organizer, string title, string description, uint entranceFee, uint pricePool, uint timer);\r\n    event ParticipantAdded(uint indexed quizId, address indexed participant);\r\n    event QuizClosed(uint indexed quizId);\r\n\r\n    function createQuiz(\r\n        string memory title,\r\n        string memory description,\r\n        string memory imageUrl,\r\n        uint entranceFee,\r\n        uint pricePool,\r\n        uint timer,\r\n        Question[] memory questions,\r\n        Reward[] memory rewards\r\n    ) public {\r\n        // Transfer Theta tokens as price pool\r\n        ERC20 theta = ERC20(thetaToken);\r\n        require(theta.transferFrom(msg.sender, address(this), pricePool), \"Theta transfer failed\");\r\n\r\n        Quiz storage newQuiz = quizzes.push();\r\n        newQuiz.title = title;\r\n        newQuiz.description = description;\r\n        newQuiz.imageUrl = imageUrl;\r\n        newQuiz.entranceFee = entranceFee;\r\n        newQuiz.pricePool = pricePool;\r\n        newQuiz.timer = timer;\r\n        newQuiz.organizer = msg.sender;\r\n        newQuiz.isActive = true;\r\n\r\n        for (uint i = 0; i < questions.length; i++) {\r\n            newQuiz.questions.push(Question({\r\n                questionText: questions[i].questionText,\r\n                questionImg: questions[i].questionImg,\r\n                options: questions[i].options,\r\n                correctOption: questions[i].correctOption\r\n            }));\r\n        }\r\n\r\n        for (uint j = 0; j < rewards.length; j++) {\r\n            newQuiz.rewards.push(Reward({\r\n                label: rewards[j].label,\r\n                value: rewards[j].value\r\n            }));\r\n        }\r\n\r\n        emit QuizCreated(quizzes.length - 1, msg.sender, title, description, entranceFee, pricePool, timer);\r\n    }\r\n\r\n    function participateInQuiz(uint quizId) public payable {\r\n        Quiz storage quiz = quizzes[quizId];\r\n        require(msg.value == quiz.entranceFee, \"Incorrect entrance fee in TFUEL\");\r\n        require(quiz.isActive, \"Quiz is not active\");\r\n        require(!quizParticipants[quizId][msg.sender], \"Already participating\");\r\n\r\n        quizParticipants[quizId][msg.sender] = true;\r\n        emit ParticipantAdded(quizId, msg.sender);\r\n\r\n        // Transfer TFUEL from participant to the contract\r\n        ERC20 tfuel = ERC20(tfuelToken);\r\n        require(tfuel.transferFrom(msg.sender, address(this), quiz.entranceFee), \"TFUEL transfer failed\");\r\n    }\r\n\r\n    function submitAnswers(uint quizId, uint[] memory answers) public {\r\n        Quiz storage quiz = quizzes[quizId];\r\n        require(quizParticipants[quizId][msg.sender], \"Not a participant\");\r\n        require(quiz.isActive, \"Quiz is not active\");\r\n\r\n        uint correctAnswers = 0;\r\n        for (uint i = 0; i < answers.length; i++) {\r\n            if (answers[i] == quiz.questions[i].correctOption) {\r\n                correctAnswers++;\r\n            }\r\n        }\r\n\r\n        uint percentage = (correctAnswers * 100) / quiz.questions.length;\r\n        uint reward = calculateReward(percentage, quiz.rewards);\r\n\r\n        if (reward > 0 && quiz.pricePool >= reward) {\r\n            quiz.pricePool -= reward;\r\n            payable(msg.sender).transfer(reward);\r\n        }\r\n\r\n        if (quiz.pricePool < quiz.rewards[2].value) {\r\n            quiz.isActive = false;\r\n            emit QuizClosed(quizId);\r\n        }\r\n    }\r\n\r\n    function calculateReward(uint percentage, Reward[] memory rewards) internal pure returns (uint) {\r\n        if (percentage >= 80 && percentage <= 100) {\r\n            return rewards[2].value;\r\n        } else if (percentage >= 70 && percentage <= 79) {\r\n            return rewards[1].value;\r\n        } else if (percentage >= 60 && percentage <= 69) {\r\n            return rewards[0].value;\r\n        } else {\r\n            return 0;\r\n        }\r\n    }\r\n\r\n    function getQuiz(uint quizId) public view returns (\r\n        string memory title,\r\n        string memory description,\r\n        string memory imageUrl,\r\n        uint entranceFee,\r\n        uint pricePool,\r\n        uint timer,\r\n        bool isActive\r\n    ) {\r\n        Quiz storage quiz = quizzes[quizId];\r\n        return (\r\n            quiz.title,\r\n            quiz.description,\r\n            quiz.imageUrl,\r\n            quiz.entranceFee,\r\n            quiz.pricePool,\r\n            quiz.timer,\r\n            quiz.isActive\r\n        );\r\n    }\r\n\r\n    function getQuizzesCount() public view returns (uint) {\r\n        return quizzes.length;\r\n    }\r\n\r\n    function isParticipant(uint quizId, address participant) public view returns (bool) {\r\n        return quizParticipants[quizId][participant];\r\n    }\r\n}\r\n",
  "sourcePath": "C:\\Users\\John PC\\Desktop\\hacks\\geniusmind\\genius\\contracts\\QuizPlatform.sol",
  "compiler": {
    "name": "solc",
    "version": "0.8.0+commit.c7dfd78e.Emscripten.clang"
  },
  "schemaVersion": "3.4.16",
  "updatedAt": "2024-06-28T14:43:39.769Z",
  "networkType": "ethereum",
  "devdoc": {
    "kind": "dev",
    "methods": {},
    "version": 1
  },
  "userdoc": {
    "kind": "user",
    "methods": {},
    "version": 1
  }
}