{
    "contractName": "QuizPlatform",
    "abi": [
        {
            "anonymous": false,
            "inputs": [
                {
                    "indexed": true,
                    "internalType": "uint256",
                    "name": "quizId",
                    "type": "uint256"
                },
                {
                    "indexed": true,
                    "internalType": "address",
                    "name": "participant",
                    "type": "address"
                }
            ],
            "name": "ParticipantAdded",
            "type": "event"
        },
        {
            "anonymous": false,
            "inputs": [
                {
                    "indexed": true,
                    "internalType": "uint256",
                    "name": "quizId",
                    "type": "uint256"
                }
            ],
            "name": "QuizClosed",
            "type": "event"
        },
        {
            "anonymous": false,
            "inputs": [
                {
                    "indexed": true,
                    "internalType": "uint256",
                    "name": "quizId",
                    "type": "uint256"
                },
                {
                    "indexed": true,
                    "internalType": "address",
                    "name": "organizer",
                    "type": "address"
                },
                {
                    "indexed": false,
                    "internalType": "string",
                    "name": "title",
                    "type": "string"
                },
                {
                    "indexed": false,
                    "internalType": "string",
                    "name": "description",
                    "type": "string"
                },
                {
                    "indexed": false,
                    "internalType": "uint256",
                    "name": "entranceFee",
                    "type": "uint256"
                },
                {
                    "indexed": false,
                    "internalType": "uint256",
                    "name": "pricePool",
                    "type": "uint256"
                },
                {
                    "indexed": false,
                    "internalType": "uint256",
                    "name": "timer",
                    "type": "uint256"
                }
            ],
            "name": "QuizCreated",
            "type": "event"
        },
        {
            "inputs": [
                {
                    "internalType": "uint256",
                    "name": "",
                    "type": "uint256"
                },
                {
                    "internalType": "address",
                    "name": "",
                    "type": "address"
                }
            ],
            "name": "quizParticipants",
            "outputs": [
                {
                    "internalType": "bool",
                    "name": "",
                    "type": "bool"
                }
            ],
            "stateMutability": "view",
            "type": "function",
            "constant": true
        },
        {
            "inputs": [
                {
                    "internalType": "uint256",
                    "name": "",
                    "type": "uint256"
                }
            ],
            "name": "quizzes",
            "outputs": [
                {
                    "internalType": "string",
                    "name": "title",
                    "type": "string"
                },
                {
                    "internalType": "string",
                    "name": "description",
                    "type": "string"
                },
                {
                    "internalType": "string",
                    "name": "imageUrl",
                    "type": "string"
                },
                {
                    "internalType": "uint256",
                    "name": "entranceFee",
                    "type": "uint256"
                },
                {
                    "internalType": "uint256",
                    "name": "pricePool",
                    "type": "uint256"
                },
                {
                    "internalType": "uint256",
                    "name": "timer",
                    "type": "uint256"
                },
                {
                    "internalType": "address",
                    "name": "organizer",
                    "type": "address"
                },
                {
                    "internalType": "bool",
                    "name": "isActive",
                    "type": "bool"
                }
            ],
            "stateMutability": "view",
            "type": "function",
            "constant": true
        },
        {
            "inputs": [
                {
                    "internalType": "string",
                    "name": "title",
                    "type": "string"
                },
                {
                    "internalType": "string",
                    "name": "description",
                    "type": "string"
                },
                {
                    "internalType": "string",
                    "name": "imageUrl",
                    "type": "string"
                },
                {
                    "internalType": "uint256",
                    "name": "entranceFee",
                    "type": "uint256"
                },
                {
                    "internalType": "uint256",
                    "name": "pricePool",
                    "type": "uint256"
                },
                {
                    "internalType": "uint256",
                    "name": "timer",
                    "type": "uint256"
                },
                {
                    "components": [
                        {
                            "internalType": "string",
                            "name": "questionText",
                            "type": "string"
                        },
                        {
                            "internalType": "string",
                            "name": "questionImg",
                            "type": "string"
                        },
                        {
                            "internalType": "string[]",
                            "name": "options",
                            "type": "string[]"
                        },
                        {
                            "internalType": "uint256",
                            "name": "correctOption",
                            "type": "uint256"
                        }
                    ],
                    "internalType": "struct QuizPlatform.Question[]",
                    "name": "questions",
                    "type": "tuple[]"
                },
                {
                    "components": [
                        {
                            "internalType": "string",
                            "name": "label",
                            "type": "string"
                        },
                        {
                            "internalType": "uint256",
                            "name": "value",
                            "type": "uint256"
                        }
                    ],
                    "internalType": "struct QuizPlatform.Reward[]",
                    "name": "rewards",
                    "type": "tuple[]"
                }
            ],
            "name": "createQuiz",
            "outputs": [],
            "stateMutability": "payable",
            "type": "function",
            "payable": true
        },
        {
            "inputs": [
                {
                    "internalType": "uint256",
                    "name": "quizId",
                    "type": "uint256"
                }
            ],
            "name": "participateInQuiz",
            "outputs": [],
            "stateMutability": "payable",
            "type": "function",
            "payable": true
        },
        {
            "inputs": [
                {
                    "internalType": "uint256",
                    "name": "quizId",
                    "type": "uint256"
                },
                {
                    "internalType": "uint256[]",
                    "name": "answers",
                    "type": "uint256[]"
                }
            ],
            "name": "submitAnswers",
            "outputs": [],
            "stateMutability": "nonpayable",
            "type": "function"
        },
        {
            "inputs": [
                {
                    "internalType": "uint256",
                    "name": "quizId",
                    "type": "uint256"
                }
            ],
            "name": "getQuiz",
            "outputs": [
                {
                    "internalType": "string",
                    "name": "title",
                    "type": "string"
                },
                {
                    "internalType": "string",
                    "name": "description",
                    "type": "string"
                },
                {
                    "internalType": "string",
                    "name": "imageUrl",
                    "type": "string"
                },
                {
                    "internalType": "uint256",
                    "name": "entranceFee",
                    "type": "uint256"
                },
                {
                    "internalType": "uint256",
                    "name": "pricePool",
                    "type": "uint256"
                },
                {
                    "internalType": "uint256",
                    "name": "timer",
                    "type": "uint256"
                },
                {
                    "internalType": "bool",
                    "name": "isActive",
                    "type": "bool"
                }
            ],
            "stateMutability": "view",
            "type": "function",
            "constant": true
        },
        {
            "inputs": [],
            "name": "getQuizzesCount",
            "outputs": [
                {
                    "internalType": "uint256",
                    "name": "",
                    "type": "uint256"
                }
            ],
            "stateMutability": "view",
            "type": "function",
            "constant": true
        },
        {
            "inputs": [
                {
                    "internalType": "uint256",
                    "name": "quizId",
                    "type": "uint256"
                },
                {
                    "internalType": "address",
                    "name": "participant",
                    "type": "address"
                }
            ],
            "name": "isParticipant",
            "outputs": [
                {
                    "internalType": "bool",
                    "name": "",
                    "type": "bool"
                }
            ],
            "stateMutability": "view",
            "type": "function",
            "constant": true
        }
    ],
    "bytecode": "0x608060405234801561001057600080fd5b50612293806100206000396000f3fe60806040526004361061007b5760003560e01c8063758d9b891161004e578063758d9b891461011e57806388409afa1461015b5780639f0f84381461019f578063a3f7e096146101ca5761007b565b8063084a58181461008057806309cc25b5146100a9578063595fb9e6146100c557806360ef704f146100e1575b600080fd5b34801561008c57600080fd5b506100a760048036038101906100a29190611a29565b61020d565b005b6100c360048036038101906100be919061189a565b61065a565b005b6100df60048036038101906100da91906119c4565b610aec565b005b3480156100ed57600080fd5b50610108600480360381019061010391906119ed565b610d1c565b6040516101159190611c23565b60405180910390f35b34801561012a57600080fd5b50610145600480360381019061014091906119ed565b610d4b565b6040516101529190611c23565b60405180910390f35b34801561016757600080fd5b50610182600480360381019061017d91906119c4565b610db3565b604051610196989796959493929190611c3e565b60405180910390f35b3480156101ab57600080fd5b506101b4610fd0565b6040516101c19190611e56565b60405180910390f35b3480156101d657600080fd5b506101f160048036038101906101ec91906119c4565b610fdc565b6040516102049796959493929190611cd1565b60405180910390f35b6000808381548110610248577f4e487b7100000000000000000000000000000000000000000000000000000000600052603260045260246000fd5b906000526020600020906009020190506001600084815260200190815260200160002060003373ffffffffffffffffffffffffffffffffffffffff1673ffffffffffffffffffffffffffffffffffffffff16815260200190815260200160002060009054906101000a900460ff166102f5576040517f08c379a00000000000000000000000000000000000000000000000000000000081526004016102ec90611db6565b60405180910390fd5b8060080160149054906101000a900460ff16610346576040517f08c379a000000000000000000000000000000000000000000000000000000000815260040161033d90611dd6565b60405180910390fd5b6000805b835181101561040a5782600601818154811061038f577f4e487b7100000000000000000000000000000000000000000000000000000000600052603260045260246000fd5b9060005260206000209060040201600301548482815181106103da577f4e487b7100000000000000000000000000000000000000000000000000000000600052603260045260246000fd5b602002602001015114156103f75781806103f390612119565b9250505b808061040290612119565b91505061034a565b50600082600601805490506064836104229190611fcf565b61042c9190611f9e565b9050600061052f8285600701805480602002602001604051908101604052809291908181526020016000905b82821015610526578382906000526020600020906002020160405180604001604052908160008201805461048b906120e7565b80601f01602080910402602001604051908101604052809291908181526020018280546104b7906120e7565b80156105045780601f106104d957610100808354040283529160200191610504565b820191906000526020600020905b8154815290600101906020018083116104e757829003601f168201915b5050505050815260200160018201548152505081526020019060010190610458565b5050505061121d565b9050600081118015610545575080846004015410155b156105ad578084600401600082825461055e9190612029565b925050819055503373ffffffffffffffffffffffffffffffffffffffff166108fc829081150290604051600060405180830381858888f193505050501580156105ab573d6000803e3d6000fd5b505b836007016002815481106105ea577f4e487b7100000000000000000000000000000000000000000000000000000000600052603260045260246000fd5b906000526020600020906002020160010154846004015410156106525760008460080160146101000a81548160ff021916908315150217905550857f79e9a7dcc542d287d52a353ae39aa2f36a6a96932ff171d2f5742cf7a0869dcf60405160405180910390a25b505050505050565b83341461069c576040517f08c379a000000000000000000000000000000000000000000000000000000000815260040161069390611e16565b60405180910390fd5b6000806001816001815401808255809150500390600052602060002090600902019050888160000190805190602001906106d7929190611356565b50878160010190805190602001906106f0929190611356565b5086816002019080519060200190610709929190611356565b50858160030181905550848160040181905550838160050181905550338160080160006101000a81548173ffffffffffffffffffffffffffffffffffffffff021916908373ffffffffffffffffffffffffffffffffffffffff16021790555060018160080160146101000a81548160ff02191690831515021790555060005b8351811015610965578160060160405180608001604052808684815181106107d9577f4e487b7100000000000000000000000000000000000000000000000000000000600052603260045260246000fd5b6020026020010151600001518152602001868481518110610823577f4e487b7100000000000000000000000000000000000000000000000000000000600052603260045260246000fd5b602002602001015160200151815260200186848151811061086d577f4e487b7100000000000000000000000000000000000000000000000000000000600052603260045260246000fd5b60200260200101516040015181526020018684815181106108b7577f4e487b7100000000000000000000000000000000000000000000000000000000600052603260045260246000fd5b6020026020010151606001518152509080600181540180825580915050600190039060005260206000209060040201600090919091909150600082015181600001908051906020019061090b929190611356565b506020820151816001019080519060200190610928929190611356565b5060408201518160020190805190602001906109459291906113dc565b50606082015181600301555050808061095d90612119565b915050610788565b5060005b8251811015610a78578160070160405180604001604052808584815181106109ba577f4e487b7100000000000000000000000000000000000000000000000000000000600052603260045260246000fd5b6020026020010151600001518152602001858481518110610a04577f4e487b7100000000000000000000000000000000000000000000000000000000600052603260045260246000fd5b60200260200101516020015181525090806001815401808255809150506001900390600052602060002090600202016000909190919091506000820151816000019080519060200190610a58929190611356565b506020820151816001015550508080610a7090612119565b915050610969565b503373ffffffffffffffffffffffffffffffffffffffff166001600080549050610aa29190612029565b7fe97fa6a747a198343c245b91fece060e32f43d15a00999eac5d21a9780e7bfbc8b8b8a8a8a604051610ad9959493929190611d55565b60405180910390a3505050505050505050565b6000808281548110610b27577f4e487b7100000000000000000000000000000000000000000000000000000000600052603260045260246000fd5b9060005260206000209060090201905080600301543414610b7d576040517f08c379a0000000000000000000000000000000000000000000000000000000008152600401610b7490611e36565b60405180910390fd5b8060080160149054906101000a900460ff16610bce576040517f08c379a0000000000000000000000000000000000000000000000000000000008152600401610bc590611dd6565b60405180910390fd5b6001600083815260200190815260200160002060003373ffffffffffffffffffffffffffffffffffffffff1673ffffffffffffffffffffffffffffffffffffffff16815260200190815260200160002060009054906101000a900460ff1615610c6c576040517f08c379a0000000000000000000000000000000000000000000000000000000008152600401610c6390611df6565b60405180910390fd5b600180600084815260200190815260200160002060003373ffffffffffffffffffffffffffffffffffffffff1673ffffffffffffffffffffffffffffffffffffffff16815260200190815260200160002060006101000a81548160ff0219169083151502179055503373ffffffffffffffffffffffffffffffffffffffff16827f12246ba2398106df92bc0281a1eece14e5b8516c5c3dab76205391650e39fddb60405160405180910390a35050565b60016020528160005260406000206020528060005260406000206000915091509054906101000a900460ff1681565b60006001600084815260200190815260200160002060008373ffffffffffffffffffffffffffffffffffffffff1673ffffffffffffffffffffffffffffffffffffffff16815260200190815260200160002060009054906101000a900460ff16905092915050565b60008181548110610dc357600080fd5b9060005260206000209060090201600091509050806000018054610de6906120e7565b80601f0160208091040260200160405190810160405280929190818152602001828054610e12906120e7565b8015610e5f5780601f10610e3457610100808354040283529160200191610e5f565b820191906000526020600020905b815481529060010190602001808311610e4257829003601f168201915b505050505090806001018054610e74906120e7565b80601f0160208091040260200160405190810160405280929190818152602001828054610ea0906120e7565b8015610eed5780601f10610ec257610100808354040283529160200191610eed565b820191906000526020600020905b815481529060010190602001808311610ed057829003601f168201915b505050505090806002018054610f02906120e7565b80601f0160208091040260200160405190810160405280929190818152602001828054610f2e906120e7565b8015610f7b5780601f10610f5057610100808354040283529160200191610f7b565b820191906000526020600020905b815481529060010190602001808311610f5e57829003601f168201915b5050505050908060030154908060040154908060050154908060080160009054906101000a900473ffffffffffffffffffffffffffffffffffffffff16908060080160149054906101000a900460ff16905088565b60008080549050905090565b60608060606000806000806000808981548110611022577f4e487b7100000000000000000000000000000000000000000000000000000000600052603260045260246000fd5b906000526020600020906009020190508060000181600101826002018360030154846004015485600501548660080160149054906101000a900460ff1686805461106b906120e7565b80601f0160208091040260200160405190810160405280929190818152602001828054611097906120e7565b80156110e45780601f106110b9576101008083540402835291602001916110e4565b820191906000526020600020905b8154815290600101906020018083116110c757829003601f168201915b505050505096508580546110f7906120e7565b80601f0160208091040260200160405190810160405280929190818152602001828054611123906120e7565b80156111705780601f1061114557610100808354040283529160200191611170565b820191906000526020600020905b81548152906001019060200180831161115357829003601f168201915b50505050509550848054611183906120e7565b80601f01602080910402602001604051908101604052809291908181526020018280546111af906120e7565b80156111fc5780601f106111d1576101008083540402835291602001916111fc565b820191906000526020600020905b8154815290600101906020018083116111df57829003601f168201915b50505050509450975097509750975097509750975050919395979092949650565b600060508310158015611231575060648311155b156112835781600281518110611270577f4e487b7100000000000000000000000000000000000000000000000000000000600052603260045260246000fd5b6020026020010151602001519050611350565b604683101580156112955750604f8311155b156112e757816001815181106112d4577f4e487b7100000000000000000000000000000000000000000000000000000000600052603260045260246000fd5b6020026020010151602001519050611350565b603c83101580156112f9575060458311155b1561134b5781600081518110611338577f4e487b7100000000000000000000000000000000000000000000000000000000600052603260045260246000fd5b6020026020010151602001519050611350565b600090505b92915050565b828054611362906120e7565b90600052602060002090601f01602090048101928261138457600085556113cb565b82601f1061139d57805160ff19168380011785556113cb565b828001600101855582156113cb579182015b828111156113ca5782518255916020019190600101906113af565b5b5090506113d8919061143c565b5090565b82805482825590600052602060002090810192821561142b579160200282015b8281111561142a57825182908051906020019061141a929190611356565b50916020019190600101906113fc565b5b5090506114389190611459565b5090565b5b8082111561145557600081600090555060010161143d565b5090565b5b808211156114795760008181611470919061147d565b5060010161145a565b5090565b508054611489906120e7565b6000825580601f1061149b57506114ba565b601f0160209004906000526020600020908101906114b9919061143c565b5b50565b60006114d06114cb84611ea2565b611e71565b9050808382526020820190508260005b8581101561151057813585016114f6888261173b565b8452602084019350602083019250506001810190506114e0565b5050509392505050565b600061152d61152884611ece565b611e71565b9050808382526020820190508260005b8581101561156d57813585016115538882611765565b84526020840193506020830192505060018101905061153d565b5050509392505050565b600061158a61158584611efa565b611e71565b9050808382526020820190508260005b858110156115ca57813585016115b08882611821565b84526020840193506020830192505060018101905061159a565b5050509392505050565b60006115e76115e284611f26565b611e71565b9050808382526020820190508285602086028201111561160657600080fd5b60005b85811015611636578161161c8882611885565b845260208401935060208301925050600181019050611609565b5050509392505050565b600061165361164e84611f52565b611e71565b90508281526020810184848401111561166b57600080fd5b6116768482856120a5565b509392505050565b60008135905061168d8161222f565b92915050565b600082601f8301126116a457600080fd5b81356116b48482602086016114bd565b91505092915050565b600082601f8301126116ce57600080fd5b81356116de84826020860161151a565b91505092915050565b600082601f8301126116f857600080fd5b8135611708848260208601611577565b91505092915050565b600082601f83011261172257600080fd5b81356117328482602086016115d4565b91505092915050565b600082601f83011261174c57600080fd5b813561175c848260208601611640565b91505092915050565b60006080828403121561177757600080fd5b6117816080611e71565b9050600082013567ffffffffffffffff81111561179d57600080fd5b6117a98482850161173b565b600083015250602082013567ffffffffffffffff8111156117c957600080fd5b6117d58482850161173b565b602083015250604082013567ffffffffffffffff8111156117f557600080fd5b61180184828501611693565b604083015250606061181584828501611885565b60608301525092915050565b60006040828403121561183357600080fd5b61183d6040611e71565b9050600082013567ffffffffffffffff81111561185957600080fd5b6118658482850161173b565b600083015250602061187984828501611885565b60208301525092915050565b60008135905061189481612246565b92915050565b600080600080600080600080610100898b0312156118b757600080fd5b600089013567ffffffffffffffff8111156118d157600080fd5b6118dd8b828c0161173b565b985050602089013567ffffffffffffffff8111156118fa57600080fd5b6119068b828c0161173b565b975050604089013567ffffffffffffffff81111561192357600080fd5b61192f8b828c0161173b565b96505060606119408b828c01611885565b95505060806119518b828c01611885565b94505060a06119628b828c01611885565b93505060c089013567ffffffffffffffff81111561197f57600080fd5b61198b8b828c016116bd565b92505060e089013567ffffffffffffffff8111156119a857600080fd5b6119b48b828c016116e7565b9150509295985092959890939650565b6000602082840312156119d657600080fd5b60006119e484828501611885565b91505092915050565b60008060408385031215611a0057600080fd5b6000611a0e85828601611885565b9250506020611a1f8582860161167e565b9150509250929050565b60008060408385031215611a3c57600080fd5b6000611a4a85828601611885565b925050602083013567ffffffffffffffff811115611a6757600080fd5b611a7385828601611711565b9150509250929050565b611a868161205d565b82525050565b611a958161206f565b82525050565b6000611aa682611f82565b611ab08185611f8d565b9350611ac08185602086016120b4565b611ac98161221e565b840191505092915050565b6000611ae1601183611f8d565b91507f4e6f742061207061727469636970616e740000000000000000000000000000006000830152602082019050919050565b6000611b21601283611f8d565b91507f5175697a206973206e6f742061637469766500000000000000000000000000006000830152602082019050919050565b6000611b61601583611f8d565b91507f416c72656164792070617274696369706174696e6700000000000000000000006000830152602082019050919050565b6000611ba1602083611f8d565b91507f507269636520706f6f6c206d757374206265207061696420696e2054484554416000830152602082019050919050565b6000611be1601f83611f8d565b91507f496e636f727265637420656e7472616e63652066656520696e20544655454c006000830152602082019050919050565b611c1d8161209b565b82525050565b6000602082019050611c386000830184611a8c565b92915050565b6000610100820190508181036000830152611c59818b611a9b565b90508181036020830152611c6d818a611a9b565b90508181036040830152611c818189611a9b565b9050611c906060830188611c14565b611c9d6080830187611c14565b611caa60a0830186611c14565b611cb760c0830185611a7d565b611cc460e0830184611a8c565b9998505050505050505050565b600060e0820190508181036000830152611ceb818a611a9b565b90508181036020830152611cff8189611a9b565b90508181036040830152611d138188611a9b565b9050611d226060830187611c14565b611d2f6080830186611c14565b611d3c60a0830185611c14565b611d4960c0830184611a8c565b98975050505050505050565b600060a0820190508181036000830152611d6f8188611a9b565b90508181036020830152611d838187611a9b565b9050611d926040830186611c14565b611d9f6060830185611c14565b611dac6080830184611c14565b9695505050505050565b60006020820190508181036000830152611dcf81611ad4565b9050919050565b60006020820190508181036000830152611def81611b14565b9050919050565b60006020820190508181036000830152611e0f81611b54565b9050919050565b60006020820190508181036000830152611e2f81611b94565b9050919050565b60006020820190508181036000830152611e4f81611bd4565b9050919050565b6000602082019050611e6b6000830184611c14565b92915050565b6000604051905081810181811067ffffffffffffffff82111715611e9857611e976121ef565b5b8060405250919050565b600067ffffffffffffffff821115611ebd57611ebc6121ef565b5b602082029050602081019050919050565b600067ffffffffffffffff821115611ee957611ee86121ef565b5b602082029050602081019050919050565b600067ffffffffffffffff821115611f1557611f146121ef565b5b602082029050602081019050919050565b600067ffffffffffffffff821115611f4157611f406121ef565b5b602082029050602081019050919050565b600067ffffffffffffffff821115611f6d57611f6c6121ef565b5b601f19601f8301169050602081019050919050565b600081519050919050565b600082825260208201905092915050565b6000611fa98261209b565b9150611fb48361209b565b925082611fc457611fc3612191565b5b828204905092915050565b6000611fda8261209b565b9150611fe58361209b565b9250817fffffffffffffffffffffffffffffffffffffffffffffffffffffffffffffffff048311821515161561201e5761201d612162565b5b828202905092915050565b60006120348261209b565b915061203f8361209b565b92508282101561205257612051612162565b5b828203905092915050565b60006120688261207b565b9050919050565b60008115159050919050565b600073ffffffffffffffffffffffffffffffffffffffff82169050919050565b6000819050919050565b82818337600083830152505050565b60005b838110156120d25780820151818401526020810190506120b7565b838111156120e1576000848401525b50505050565b600060028204905060018216806120ff57607f821691505b60208210811415612113576121126121c0565b5b50919050565b60006121248261209b565b91507fffffffffffffffffffffffffffffffffffffffffffffffffffffffffffffffff82141561215757612156612162565b5b600182019050919050565b7f4e487b7100000000000000000000000000000000000000000000000000000000600052601160045260246000fd5b7f4e487b7100000000000000000000000000000000000000000000000000000000600052601260045260246000fd5b7f4e487b7100000000000000000000000000000000000000000000000000000000600052602260045260246000fd5b7f4e487b7100000000000000000000000000000000000000000000000000000000600052604160045260246000fd5b6000601f19601f8301169050919050565b6122388161205d565b811461224357600080fd5b50565b61224f8161209b565b811461225a57600080fd5b5056fea26469706673582212204bbe1b897dabca60d9a0b6a2c74f732eddca8c007a70b2cef6780475333d270064736f6c63430008000033",
    "immutableReferences": {},
    "source": "// SPDX-License-Identifier: MIT\r\npragma solidity ^0.8.0;\r\n\r\ncontract QuizPlatform {\r\n\r\n    struct Question {\r\n        string questionText;\r\n        string questionImg;\r\n        string[] options;\r\n        uint correctOption;\r\n    }\r\n\r\n    struct Reward {\r\n        string label;\r\n        uint value;\r\n    }\r\n\r\n    struct Quiz {\r\n        string title;\r\n        string description;\r\n        string imageUrl; \r\n        uint entranceFee;\r\n        uint pricePool;\r\n        uint timer;\r\n        Question[] questions;\r\n        Reward[] rewards;\r\n        address organizer;\r\n        bool isActive;\r\n    }\r\n\r\n    Quiz[] public quizzes;\r\n    mapping(uint => mapping(address => bool)) public quizParticipants;\r\n\r\n    event QuizCreated(uint indexed quizId, address indexed organizer, string title, string description, uint entranceFee, uint pricePool, uint timer);\r\n    event ParticipantAdded(uint indexed quizId, address indexed participant);\r\n    event QuizClosed(uint indexed quizId);\r\n\r\n    function createQuiz(\r\n        string memory title,\r\n        string memory description,\r\n        string memory imageUrl, // Added image URL parameter\r\n        uint entranceFee,\r\n        uint pricePool,\r\n        uint timer,\r\n        Question[] memory questions,\r\n        Reward[] memory rewards\r\n    ) public payable {\r\n        require(msg.value == pricePool, \"Price pool must be paid in THETA\");\r\n\r\n        Quiz storage newQuiz = quizzes.push();\r\n        newQuiz.title = title;\r\n        newQuiz.description = description;\r\n        newQuiz.imageUrl = imageUrl; // Set image URL\r\n        newQuiz.entranceFee = entranceFee;\r\n        newQuiz.pricePool = pricePool;\r\n        newQuiz.timer = timer;\r\n        newQuiz.organizer = msg.sender;\r\n        newQuiz.isActive = true;\r\n\r\n        for (uint i = 0; i < questions.length; i++) {\r\n            newQuiz.questions.push(Question({\r\n                questionText: questions[i].questionText,\r\n                questionImg: questions[i].questionImg,\r\n                options: questions[i].options,\r\n                correctOption: questions[i].correctOption\r\n            }));\r\n        }\r\n\r\n        for (uint j = 0; j < rewards.length; j++) {\r\n            newQuiz.rewards.push(Reward({\r\n                label: rewards[j].label,\r\n                value: rewards[j].value\r\n            }));\r\n        }\r\n\r\n        emit QuizCreated(quizzes.length - 1, msg.sender, title, description, entranceFee, pricePool, timer);\r\n    }\r\n\r\n    function participateInQuiz(uint quizId) public payable {\r\n        Quiz storage quiz = quizzes[quizId];\r\n        require(msg.value == quiz.entranceFee, \"Incorrect entrance fee in TFUEL\");\r\n        require(quiz.isActive, \"Quiz is not active\");\r\n        require(!quizParticipants[quizId][msg.sender], \"Already participating\");\r\n\r\n        quizParticipants[quizId][msg.sender] = true;\r\n        emit ParticipantAdded(quizId, msg.sender);\r\n    }\r\n\r\n    function submitAnswers(uint quizId, uint[] memory answers) public {\r\n        Quiz storage quiz = quizzes[quizId];\r\n        require(quizParticipants[quizId][msg.sender], \"Not a participant\");\r\n        require(quiz.isActive, \"Quiz is not active\");\r\n\r\n        uint correctAnswers = 0;\r\n        for (uint i = 0; i < answers.length; i++) {\r\n            if (answers[i] == quiz.questions[i].correctOption) {\r\n                correctAnswers++;\r\n            }\r\n        }\r\n\r\n        uint percentage = (correctAnswers * 100) / quiz.questions.length;\r\n        uint reward = calculateReward(percentage, quiz.rewards);\r\n\r\n        if (reward > 0 && quiz.pricePool >= reward) {\r\n            quiz.pricePool -= reward;\r\n            payable(msg.sender).transfer(reward);\r\n        }\r\n\r\n        if (quiz.pricePool < quiz.rewards[2].value) {\r\n            quiz.isActive = false;\r\n            emit QuizClosed(quizId);\r\n        }\r\n    }\r\n\r\n    function calculateReward(uint percentage, Reward[] memory rewards) internal pure returns (uint) {\r\n        if (percentage >= 80 && percentage <= 100) {\r\n            return rewards[2].value;\r\n        } else if (percentage >= 70 && percentage <= 79) {\r\n            return rewards[1].value;\r\n        } else if (percentage >= 60 && percentage <= 69) {\r\n            return rewards[0].value;\r\n        } else {\r\n            return 0;\r\n        }\r\n    }\r\n\r\n    function getQuiz(uint quizId) public view returns (\r\n        string memory title,\r\n        string memory description,\r\n        string memory imageUrl,\r\n        uint entranceFee,\r\n        uint pricePool,\r\n        uint timer,\r\n        bool isActive\r\n    ) {\r\n        Quiz storage quiz = quizzes[quizId];\r\n        return (\r\n            quiz.title,\r\n            quiz.description,\r\n            quiz.imageUrl, \r\n            quiz.entranceFee,\r\n            quiz.pricePool,\r\n            quiz.timer,\r\n            quiz.isActive\r\n        );\r\n    }\r\n\r\n    function getQuizzesCount() public view returns (uint) {\r\n        return quizzes.length;\r\n    }\r\n\r\n    function isParticipant(uint quizId, address participant) public view returns (bool) {\r\n        return quizParticipants[quizId][participant];\r\n    }\r\n}\r\n",
    "sourcePath": "C:\\Users\\John PC\\Desktop\\hacks\\geniusmind\\genius\\contracts\\QuizPlatform.sol",
    "compiler": {
        "name": "solc",
        "version": "0.8.0+commit.c7dfd78e.Emscripten.clang"
    },
    "schemaVersion": "3.4.16",
    "updatedAt": "2024-06-29T00:17:04.824Z",
    "networkType": "ethereum",
    "devdoc": {
        "kind": "dev",
        "methods": {},
        "version": 1
    },
    "userdoc": {
        "kind": "user",
        "methods": {},
        "version": 1
    }
}