{
  "contractName": "QuizPlatform",
  "abi": [
    {
      "anonymous": false,
      "inputs": [
        {
          "indexed": true,
          "internalType": "uint256",
          "name": "quizId",
          "type": "uint256"
        },
        {
          "indexed": true,
          "internalType": "address",
          "name": "participant",
          "type": "address"
        }
      ],
      "name": "ParticipantAdded",
      "type": "event"
    },
    {
      "anonymous": false,
      "inputs": [
        {
          "indexed": true,
          "internalType": "uint256",
          "name": "quizId",
          "type": "uint256"
        }
      ],
      "name": "QuizClosed",
      "type": "event"
    },
    {
      "anonymous": false,
      "inputs": [
        {
          "indexed": true,
          "internalType": "uint256",
          "name": "quizId",
          "type": "uint256"
        },
        {
          "indexed": true,
          "internalType": "address",
          "name": "organizer",
          "type": "address"
        },
        {
          "indexed": false,
          "internalType": "string",
          "name": "title",
          "type": "string"
        },
        {
          "indexed": false,
          "internalType": "string",
          "name": "description",
          "type": "string"
        },
        {
          "indexed": false,
          "internalType": "uint256",
          "name": "entranceFee",
          "type": "uint256"
        },
        {
          "indexed": false,
          "internalType": "uint256",
          "name": "pricePool",
          "type": "uint256"
        },
        {
          "indexed": false,
          "internalType": "uint256",
          "name": "timer",
          "type": "uint256"
        }
      ],
      "name": "QuizCreated",
      "type": "event"
    },
    {
      "inputs": [
        {
          "internalType": "uint256",
          "name": "",
          "type": "uint256"
        },
        {
          "internalType": "address",
          "name": "",
          "type": "address"
        }
      ],
      "name": "quizParticipants",
      "outputs": [
        {
          "internalType": "bool",
          "name": "",
          "type": "bool"
        }
      ],
      "stateMutability": "view",
      "type": "function",
      "constant": true
    },
    {
      "inputs": [
        {
          "internalType": "uint256",
          "name": "",
          "type": "uint256"
        }
      ],
      "name": "quizzes",
      "outputs": [
        {
          "internalType": "string",
          "name": "title",
          "type": "string"
        },
        {
          "internalType": "string",
          "name": "description",
          "type": "string"
        },
        {
          "internalType": "string",
          "name": "imageUrl",
          "type": "string"
        },
        {
          "internalType": "uint256",
          "name": "entranceFee",
          "type": "uint256"
        },
        {
          "internalType": "uint256",
          "name": "pricePool",
          "type": "uint256"
        },
        {
          "internalType": "uint256",
          "name": "timer",
          "type": "uint256"
        },
        {
          "internalType": "address",
          "name": "organizer",
          "type": "address"
        },
        {
          "internalType": "bool",
          "name": "isActive",
          "type": "bool"
        }
      ],
      "stateMutability": "view",
      "type": "function",
      "constant": true
    },
    {
      "inputs": [],
      "name": "tfuelToken",
      "outputs": [
        {
          "internalType": "address",
          "name": "",
          "type": "address"
        }
      ],
      "stateMutability": "view",
      "type": "function",
      "constant": true
    },
    {
      "inputs": [],
      "name": "thetaToken",
      "outputs": [
        {
          "internalType": "address",
          "name": "",
          "type": "address"
        }
      ],
      "stateMutability": "view",
      "type": "function",
      "constant": true
    },
    {
      "inputs": [
        {
          "internalType": "string",
          "name": "title",
          "type": "string"
        },
        {
          "internalType": "string",
          "name": "description",
          "type": "string"
        },
        {
          "internalType": "string",
          "name": "imageUrl",
          "type": "string"
        },
        {
          "internalType": "uint256",
          "name": "entranceFee",
          "type": "uint256"
        },
        {
          "internalType": "uint256",
          "name": "pricePool",
          "type": "uint256"
        },
        {
          "internalType": "uint256",
          "name": "timer",
          "type": "uint256"
        },
        {
          "components": [
            {
              "internalType": "string",
              "name": "questionText",
              "type": "string"
            },
            {
              "internalType": "string",
              "name": "questionImg",
              "type": "string"
            },
            {
              "internalType": "string[]",
              "name": "options",
              "type": "string[]"
            },
            {
              "internalType": "uint256",
              "name": "correctOption",
              "type": "uint256"
            }
          ],
          "internalType": "struct QuizPlatform.Question[]",
          "name": "questions",
          "type": "tuple[]"
        },
        {
          "components": [
            {
              "internalType": "string",
              "name": "label",
              "type": "string"
            },
            {
              "internalType": "uint256",
              "name": "value",
              "type": "uint256"
            }
          ],
          "internalType": "struct QuizPlatform.Reward[]",
          "name": "rewards",
          "type": "tuple[]"
        }
      ],
      "name": "createQuiz",
      "outputs": [],
      "stateMutability": "payable",
      "type": "function",
      "payable": true
    },
    {
      "inputs": [
        {
          "internalType": "uint256",
          "name": "quizId",
          "type": "uint256"
        }
      ],
      "name": "participateInQuiz",
      "outputs": [],
      "stateMutability": "payable",
      "type": "function",
      "payable": true
    },
    {
      "inputs": [
        {
          "internalType": "uint256",
          "name": "quizId",
          "type": "uint256"
        },
        {
          "internalType": "uint256[]",
          "name": "answers",
          "type": "uint256[]"
        }
      ],
      "name": "submitAnswers",
      "outputs": [],
      "stateMutability": "nonpayable",
      "type": "function"
    },
    {
      "inputs": [
        {
          "internalType": "uint256",
          "name": "quizId",
          "type": "uint256"
        }
      ],
      "name": "getQuiz",
      "outputs": [
        {
          "internalType": "string",
          "name": "title",
          "type": "string"
        },
        {
          "internalType": "string",
          "name": "description",
          "type": "string"
        },
        {
          "internalType": "string",
          "name": "imageUrl",
          "type": "string"
        },
        {
          "internalType": "uint256",
          "name": "entranceFee",
          "type": "uint256"
        },
        {
          "internalType": "uint256",
          "name": "pricePool",
          "type": "uint256"
        },
        {
          "internalType": "uint256",
          "name": "timer",
          "type": "uint256"
        },
        {
          "internalType": "bool",
          "name": "isActive",
          "type": "bool"
        }
      ],
      "stateMutability": "view",
      "type": "function",
      "constant": true
    },
    {
      "inputs": [],
      "name": "getQuizzesCount",
      "outputs": [
        {
          "internalType": "uint256",
          "name": "",
          "type": "uint256"
        }
      ],
      "stateMutability": "view",
      "type": "function",
      "constant": true
    },
    {
      "inputs": [
        {
          "internalType": "uint256",
          "name": "quizId",
          "type": "uint256"
        },
        {
          "internalType": "address",
          "name": "participant",
          "type": "address"
        }
      ],
      "name": "isParticipant",
      "outputs": [
        {
          "internalType": "bool",
          "name": "",
          "type": "bool"
        }
      ],
      "stateMutability": "view",
      "type": "function",
      "constant": true
    }
  ],
  "bytecode": "0x6080604052731502b75f0ef25fa1fe5b79594da566047859645e6000806101000a81548173ffffffffffffffffffffffffffffffffffffffff021916908373ffffffffffffffffffffffffffffffffffffffff160217905550731502b75f0ef25fa1fe5b79594da566047859645e600160006101000a81548173ffffffffffffffffffffffffffffffffffffffff021916908373ffffffffffffffffffffffffffffffffffffffff1602179055503480156100b957600080fd5b50612605806100c96000396000f3fe6080604052600436106100915760003560e01c8063758d9b8911610059578063758d9b891461015f57806388409afa1461019c5780639f0f8438146101e0578063a3f7e0961461020b578063bf58330a1461024e57610091565b8063084a58181461009657806309cc25b5146100bf578063595fb9e6146100db57806360ef704f146100f757806362591bbe14610134575b600080fd5b3480156100a257600080fd5b506100bd60048036038101906100b89190611c86565b610279565b005b6100d960048036038101906100d49190611af7565b6106c7565b005b6100f560048036038101906100f09190611c21565b610c28565b005b34801561010357600080fd5b5061011e60048036038101906101199190611c4a565b610f2d565b60405161012b9190611f4a565b60405180910390f35b34801561014057600080fd5b50610149610f5c565b6040516101569190611f2f565b60405180910390f35b34801561016b57600080fd5b5061018660048036038101906101819190611c4a565b610f80565b6040516101939190611f4a565b60405180910390f35b3480156101a857600080fd5b506101c360048036038101906101be9190611c21565b610fe8565b6040516101d7989796959493929190611f65565b60405180910390f35b3480156101ec57600080fd5b506101f5611205565b60405161020291906121bd565b60405180910390f35b34801561021757600080fd5b50610232600480360381019061022d9190611c21565b611212565b6040516102459796959493929190611ff8565b60405180910390f35b34801561025a57600080fd5b50610263611454565b6040516102709190611f2f565b60405180910390f35b6000600283815481106102b5577f4e487b7100000000000000000000000000000000000000000000000000000000600052603260045260246000fd5b906000526020600020906009020190506003600084815260200190815260200160002060003373ffffffffffffffffffffffffffffffffffffffff1673ffffffffffffffffffffffffffffffffffffffff16815260200190815260200160002060009054906101000a900460ff16610362576040517f08c379a0000000000000000000000000000000000000000000000000000000008152600401610359906120dd565b60405180910390fd5b8060080160149054906101000a900460ff166103b3576040517f08c379a00000000000000000000000000000000000000000000000000000000081526004016103aa906120fd565b60405180910390fd5b6000805b8351811015610477578260060181815481106103fc577f4e487b7100000000000000000000000000000000000000000000000000000000600052603260045260246000fd5b906000526020600020906004020160030154848281518110610447577f4e487b7100000000000000000000000000000000000000000000000000000000600052603260045260246000fd5b602002602001015114156104645781806104609061248b565b9250505b808061046f9061248b565b9150506103b7565b506000826006018054905060648361048f9190612341565b6104999190612310565b9050600061059c8285600701805480602002602001604051908101604052809291908181526020016000905b8282101561059357838290600052602060002090600202016040518060400160405290816000820180546104f890612459565b80601f016020809104026020016040519081016040528092919081815260200182805461052490612459565b80156105715780601f1061054657610100808354040283529160200191610571565b820191906000526020600020905b81548152906001019060200180831161055457829003601f168201915b50505050508152602001600182015481525050815260200190600101906104c5565b5050505061147a565b90506000811180156105b2575080846004015410155b1561061a57808460040160008282546105cb919061239b565b925050819055503373ffffffffffffffffffffffffffffffffffffffff166108fc829081150290604051600060405180830381858888f19350505050158015610618573d6000803e3d6000fd5b505b83600701600281548110610657577f4e487b7100000000000000000000000000000000000000000000000000000000600052603260045260246000fd5b906000526020600020906002020160010154846004015410156106bf5760008460080160146101000a81548160ff021916908315150217905550857f79e9a7dcc542d287d52a353ae39aa2f36a6a96932ff171d2f5742cf7a0869dcf60405160405180910390a25b505050505050565b833414610709576040517f08c379a00000000000000000000000000000000000000000000000000000000081526004016107009061213d565b60405180910390fd5b600060026001816001815401808255809150500390600052602060002090600902019050888160000190805190602001906107459291906115b3565b508781600101908051906020019061075e9291906115b3565b50868160020190805190602001906107779291906115b3565b50858160030181905550848160040181905550838160050181905550338160080160006101000a81548173ffffffffffffffffffffffffffffffffffffffff021916908373ffffffffffffffffffffffffffffffffffffffff16021790555060018160080160146101000a81548160ff02191690831515021790555060005b83518110156109d357816006016040518060800160405280868481518110610847577f4e487b7100000000000000000000000000000000000000000000000000000000600052603260045260246000fd5b6020026020010151600001518152602001868481518110610891577f4e487b7100000000000000000000000000000000000000000000000000000000600052603260045260246000fd5b60200260200101516020015181526020018684815181106108db577f4e487b7100000000000000000000000000000000000000000000000000000000600052603260045260246000fd5b6020026020010151604001518152602001868481518110610925577f4e487b7100000000000000000000000000000000000000000000000000000000600052603260045260246000fd5b602002602001015160600151815250908060018154018082558091505060019003906000526020600020906004020160009091909190915060008201518160000190805190602001906109799291906115b3565b5060208201518160010190805190602001906109969291906115b3565b5060408201518160020190805190602001906109b3929190611639565b5060608201518160030155505080806109cb9061248b565b9150506107f6565b5060005b8251811015610ae657816007016040518060400160405280858481518110610a28577f4e487b7100000000000000000000000000000000000000000000000000000000600052603260045260246000fd5b6020026020010151600001518152602001858481518110610a72577f4e487b7100000000000000000000000000000000000000000000000000000000600052603260045260246000fd5b60200260200101516020015181525090806001815401808255809150506001900390600052602060002090600202016000909190919091506000820151816000019080519060200190610ac69291906115b3565b506020820151816001015550508080610ade9061248b565b9150506109d7565b503373ffffffffffffffffffffffffffffffffffffffff166001600280549050610b10919061239b565b7fe97fa6a747a198343c245b91fece060e32f43d15a00999eac5d21a9780e7bfbc8b8b8a8a8a604051610b4795949392919061207c565b60405180910390a360008060009054906101000a900473ffffffffffffffffffffffffffffffffffffffff1673ffffffffffffffffffffffffffffffffffffffff1686604051610b9690611f1a565b60006040518083038185875af1925050503d8060008114610bd3576040519150601f19603f3d011682016040523d82523d6000602084013e610bd8565b606091505b5050905080610c1c576040517f08c379a0000000000000000000000000000000000000000000000000000000008152600401610c139061217d565b60405180910390fd5b50505050505050505050565b600060028281548110610c64577f4e487b7100000000000000000000000000000000000000000000000000000000600052603260045260246000fd5b9060005260206000209060090201905080600301543414610cba576040517f08c379a0000000000000000000000000000000000000000000000000000000008152600401610cb19061219d565b60405180910390fd5b8060080160149054906101000a900460ff16610d0b576040517f08c379a0000000000000000000000000000000000000000000000000000000008152600401610d02906120fd565b60405180910390fd5b6003600083815260200190815260200160002060003373ffffffffffffffffffffffffffffffffffffffff1673ffffffffffffffffffffffffffffffffffffffff16815260200190815260200160002060009054906101000a900460ff1615610da9576040517f08c379a0000000000000000000000000000000000000000000000000000000008152600401610da09061211d565b60405180910390fd5b60016003600084815260200190815260200160002060003373ffffffffffffffffffffffffffffffffffffffff1673ffffffffffffffffffffffffffffffffffffffff16815260200190815260200160002060006101000a81548160ff0219169083151502179055503373ffffffffffffffffffffffffffffffffffffffff16827f12246ba2398106df92bc0281a1eece14e5b8516c5c3dab76205391650e39fddb60405160405180910390a36000600160009054906101000a900473ffffffffffffffffffffffffffffffffffffffff1673ffffffffffffffffffffffffffffffffffffffff168260030154604051610ea290611f1a565b60006040518083038185875af1925050503d8060008114610edf576040519150601f19603f3d011682016040523d82523d6000602084013e610ee4565b606091505b5050905080610f28576040517f08c379a0000000000000000000000000000000000000000000000000000000008152600401610f1f9061215d565b60405180910390fd5b505050565b60036020528160005260406000206020528060005260406000206000915091509054906101000a900460ff1681565b60008054906101000a900473ffffffffffffffffffffffffffffffffffffffff1681565b60006003600084815260200190815260200160002060008373ffffffffffffffffffffffffffffffffffffffff1673ffffffffffffffffffffffffffffffffffffffff16815260200190815260200160002060009054906101000a900460ff16905092915050565b60028181548110610ff857600080fd5b906000526020600020906009020160009150905080600001805461101b90612459565b80601f016020809104026020016040519081016040528092919081815260200182805461104790612459565b80156110945780601f1061106957610100808354040283529160200191611094565b820191906000526020600020905b81548152906001019060200180831161107757829003601f168201915b5050505050908060010180546110a990612459565b80601f01602080910402602001604051908101604052809291908181526020018280546110d590612459565b80156111225780601f106110f757610100808354040283529160200191611122565b820191906000526020600020905b81548152906001019060200180831161110557829003601f168201915b50505050509080600201805461113790612459565b80601f016020809104026020016040519081016040528092919081815260200182805461116390612459565b80156111b05780601f10611185576101008083540402835291602001916111b0565b820191906000526020600020905b81548152906001019060200180831161119357829003601f168201915b5050505050908060030154908060040154908060050154908060080160009054906101000a900473ffffffffffffffffffffffffffffffffffffffff16908060080160149054906101000a900460ff16905088565b6000600280549050905090565b6060806060600080600080600060028981548110611259577f4e487b7100000000000000000000000000000000000000000000000000000000600052603260045260246000fd5b906000526020600020906009020190508060000181600101826002018360030154846004015485600501548660080160149054906101000a900460ff168680546112a290612459565b80601f01602080910402602001604051908101604052809291908181526020018280546112ce90612459565b801561131b5780601f106112f05761010080835404028352916020019161131b565b820191906000526020600020905b8154815290600101906020018083116112fe57829003601f168201915b5050505050965085805461132e90612459565b80601f016020809104026020016040519081016040528092919081815260200182805461135a90612459565b80156113a75780601f1061137c576101008083540402835291602001916113a7565b820191906000526020600020905b81548152906001019060200180831161138a57829003601f168201915b505050505095508480546113ba90612459565b80601f01602080910402602001604051908101604052809291908181526020018280546113e690612459565b80156114335780601f1061140857610100808354040283529160200191611433565b820191906000526020600020905b81548152906001019060200180831161141657829003601f168201915b50505050509450975097509750975097509750975050919395979092949650565b600160009054906101000a900473ffffffffffffffffffffffffffffffffffffffff1681565b60006050831015801561148e575060648311155b156114e057816002815181106114cd577f4e487b7100000000000000000000000000000000000000000000000000000000600052603260045260246000fd5b60200260200101516020015190506115ad565b604683101580156114f25750604f8311155b156115445781600181518110611531577f4e487b7100000000000000000000000000000000000000000000000000000000600052603260045260246000fd5b60200260200101516020015190506115ad565b603c8310158015611556575060458311155b156115a85781600081518110611595577f4e487b7100000000000000000000000000000000000000000000000000000000600052603260045260246000fd5b60200260200101516020015190506115ad565b600090505b92915050565b8280546115bf90612459565b90600052602060002090601f0160209004810192826115e15760008555611628565b82601f106115fa57805160ff1916838001178555611628565b82800160010185558215611628579182015b8281111561162757825182559160200191906001019061160c565b5b5090506116359190611699565b5090565b828054828255906000526020600020908101928215611688579160200282015b828111156116875782518290805190602001906116779291906115b3565b5091602001919060010190611659565b5b50905061169591906116b6565b5090565b5b808211156116b257600081600090555060010161169a565b5090565b5b808211156116d657600081816116cd91906116da565b506001016116b7565b5090565b5080546116e690612459565b6000825580601f106116f85750611717565b601f0160209004906000526020600020908101906117169190611699565b5b50565b600061172d61172884612209565b6121d8565b9050808382526020820190508260005b8581101561176d57813585016117538882611998565b84526020840193506020830192505060018101905061173d565b5050509392505050565b600061178a61178584612235565b6121d8565b9050808382526020820190508260005b858110156117ca57813585016117b088826119c2565b84526020840193506020830192505060018101905061179a565b5050509392505050565b60006117e76117e284612261565b6121d8565b9050808382526020820190508260005b85811015611827578135850161180d8882611a7e565b8452602084019350602083019250506001810190506117f7565b5050509392505050565b600061184461183f8461228d565b6121d8565b9050808382526020820190508285602086028201111561186357600080fd5b60005b8581101561189357816118798882611ae2565b845260208401935060208301925050600181019050611866565b5050509392505050565b60006118b06118ab846122b9565b6121d8565b9050828152602081018484840111156118c857600080fd5b6118d3848285612417565b509392505050565b6000813590506118ea816125a1565b92915050565b600082601f83011261190157600080fd5b813561191184826020860161171a565b91505092915050565b600082601f83011261192b57600080fd5b813561193b848260208601611777565b91505092915050565b600082601f83011261195557600080fd5b81356119658482602086016117d4565b91505092915050565b600082601f83011261197f57600080fd5b813561198f848260208601611831565b91505092915050565b600082601f8301126119a957600080fd5b81356119b984826020860161189d565b91505092915050565b6000608082840312156119d457600080fd5b6119de60806121d8565b9050600082013567ffffffffffffffff8111156119fa57600080fd5b611a0684828501611998565b600083015250602082013567ffffffffffffffff811115611a2657600080fd5b611a3284828501611998565b602083015250604082013567ffffffffffffffff811115611a5257600080fd5b611a5e848285016118f0565b6040830152506060611a7284828501611ae2565b60608301525092915050565b600060408284031215611a9057600080fd5b611a9a60406121d8565b9050600082013567ffffffffffffffff811115611ab657600080fd5b611ac284828501611998565b6000830152506020611ad684828501611ae2565b60208301525092915050565b600081359050611af1816125b8565b92915050565b600080600080600080600080610100898b031215611b1457600080fd5b600089013567ffffffffffffffff811115611b2e57600080fd5b611b3a8b828c01611998565b985050602089013567ffffffffffffffff811115611b5757600080fd5b611b638b828c01611998565b975050604089013567ffffffffffffffff811115611b8057600080fd5b611b8c8b828c01611998565b9650506060611b9d8b828c01611ae2565b9550506080611bae8b828c01611ae2565b94505060a0611bbf8b828c01611ae2565b93505060c089013567ffffffffffffffff811115611bdc57600080fd5b611be88b828c0161191a565b92505060e089013567ffffffffffffffff811115611c0557600080fd5b611c118b828c01611944565b9150509295985092959890939650565b600060208284031215611c3357600080fd5b6000611c4184828501611ae2565b91505092915050565b60008060408385031215611c5d57600080fd5b6000611c6b85828601611ae2565b9250506020611c7c858286016118db565b9150509250929050565b60008060408385031215611c9957600080fd5b6000611ca785828601611ae2565b925050602083013567ffffffffffffffff811115611cc457600080fd5b611cd08582860161196e565b9150509250929050565b611ce3816123cf565b82525050565b611cf2816123e1565b82525050565b6000611d03826122e9565b611d0d81856122ff565b9350611d1d818560208601612426565b611d2681612590565b840191505092915050565b6000611d3e6011836122ff565b91507f4e6f742061207061727469636970616e740000000000000000000000000000006000830152602082019050919050565b6000611d7e6012836122ff565b91507f5175697a206973206e6f742061637469766500000000000000000000000000006000830152602082019050919050565b6000611dbe6015836122ff565b91507f416c72656164792070617274696369706174696e6700000000000000000000006000830152602082019050919050565b6000611dfe6020836122ff565b91507f507269636520706f6f6c206d757374206265207061696420696e2054484554416000830152602082019050919050565b6000611e3e6015836122ff565b91507f544655454c207472616e73666572206661696c656400000000000000000000006000830152602082019050919050565b6000611e7e6015836122ff565b91507f5448455441207472616e73666572206661696c656400000000000000000000006000830152602082019050919050565b6000611ebe6000836122f4565b9150600082019050919050565b6000611ed8601f836122ff565b91507f496e636f727265637420656e7472616e63652066656520696e20544655454c006000830152602082019050919050565b611f148161240d565b82525050565b6000611f2582611eb1565b9150819050919050565b6000602082019050611f446000830184611cda565b92915050565b6000602082019050611f5f6000830184611ce9565b92915050565b6000610100820190508181036000830152611f80818b611cf8565b90508181036020830152611f94818a611cf8565b90508181036040830152611fa88189611cf8565b9050611fb76060830188611f0b565b611fc46080830187611f0b565b611fd160a0830186611f0b565b611fde60c0830185611cda565b611feb60e0830184611ce9565b9998505050505050505050565b600060e0820190508181036000830152612012818a611cf8565b905081810360208301526120268189611cf8565b9050818103604083015261203a8188611cf8565b90506120496060830187611f0b565b6120566080830186611f0b565b61206360a0830185611f0b565b61207060c0830184611ce9565b98975050505050505050565b600060a08201905081810360008301526120968188611cf8565b905081810360208301526120aa8187611cf8565b90506120b96040830186611f0b565b6120c66060830185611f0b565b6120d36080830184611f0b565b9695505050505050565b600060208201905081810360008301526120f681611d31565b9050919050565b6000602082019050818103600083015261211681611d71565b9050919050565b6000602082019050818103600083015261213681611db1565b9050919050565b6000602082019050818103600083015261215681611df1565b9050919050565b6000602082019050818103600083015261217681611e31565b9050919050565b6000602082019050818103600083015261219681611e71565b9050919050565b600060208201905081810360008301526121b681611ecb565b9050919050565b60006020820190506121d26000830184611f0b565b92915050565b6000604051905081810181811067ffffffffffffffff821117156121ff576121fe612561565b5b8060405250919050565b600067ffffffffffffffff82111561222457612223612561565b5b602082029050602081019050919050565b600067ffffffffffffffff8211156122505761224f612561565b5b602082029050602081019050919050565b600067ffffffffffffffff82111561227c5761227b612561565b5b602082029050602081019050919050565b600067ffffffffffffffff8211156122a8576122a7612561565b5b602082029050602081019050919050565b600067ffffffffffffffff8211156122d4576122d3612561565b5b601f19601f8301169050602081019050919050565b600081519050919050565b600081905092915050565b600082825260208201905092915050565b600061231b8261240d565b91506123268361240d565b92508261233657612335612503565b5b828204905092915050565b600061234c8261240d565b91506123578361240d565b9250817fffffffffffffffffffffffffffffffffffffffffffffffffffffffffffffffff04831182151516156123905761238f6124d4565b5b828202905092915050565b60006123a68261240d565b91506123b18361240d565b9250828210156123c4576123c36124d4565b5b828203905092915050565b60006123da826123ed565b9050919050565b60008115159050919050565b600073ffffffffffffffffffffffffffffffffffffffff82169050919050565b6000819050919050565b82818337600083830152505050565b60005b83811015612444578082015181840152602081019050612429565b83811115612453576000848401525b50505050565b6000600282049050600182168061247157607f821691505b6020821081141561248557612484612532565b5b50919050565b60006124968261240d565b91507fffffffffffffffffffffffffffffffffffffffffffffffffffffffffffffffff8214156124c9576124c86124d4565b5b600182019050919050565b7f4e487b7100000000000000000000000000000000000000000000000000000000600052601160045260246000fd5b7f4e487b7100000000000000000000000000000000000000000000000000000000600052601260045260246000fd5b7f4e487b7100000000000000000000000000000000000000000000000000000000600052602260045260246000fd5b7f4e487b7100000000000000000000000000000000000000000000000000000000600052604160045260246000fd5b6000601f19601f8301169050919050565b6125aa816123cf565b81146125b557600080fd5b50565b6125c18161240d565b81146125cc57600080fd5b5056fea2646970667358221220925bb3a9751c8ae487e1b0bfdd1527b2e2e46cd7f1f1b02ef7c0c5a97dd02a6f64736f6c63430008000033",
  "immutableReferences": {},
  "source": "// SPDX-License-Identifier: MIT\r\npragma solidity ^0.8.0;\r\n\r\ncontract QuizPlatform {\r\n    address public thetaToken = 0x1502B75f0eF25Fa1Fe5b79594da566047859645e;\r\n    address public tfuelToken = 0x1502B75f0eF25Fa1Fe5b79594da566047859645e;\r\n\r\n    struct Question {\r\n        string questionText;\r\n        string questionImg;\r\n        string[] options;\r\n        uint correctOption;\r\n    }\r\n\r\n    struct Reward {\r\n        string label;\r\n        uint value;\r\n    }\r\n\r\n    struct Quiz {\r\n        string title;\r\n        string description;\r\n        string imageUrl; // Image URL for the quiz thumbnail\r\n        uint entranceFee;\r\n        uint pricePool;\r\n        uint timer;\r\n        Question[] questions;\r\n        Reward[] rewards;\r\n        address organizer;\r\n        bool isActive;\r\n    }\r\n\r\n    Quiz[] public quizzes;\r\n    mapping(uint => mapping(address => bool)) public quizParticipants;\r\n\r\n    event QuizCreated(uint indexed quizId, address indexed organizer, string title, string description, uint entranceFee, uint pricePool, uint timer);\r\n    event ParticipantAdded(uint indexed quizId, address indexed participant);\r\n    event QuizClosed(uint indexed quizId);\r\n\r\n    function createQuiz(\r\n        string memory title,\r\n        string memory description,\r\n        string memory imageUrl, // Added image URL parameter\r\n        uint entranceFee,\r\n        uint pricePool,\r\n        uint timer,\r\n        Question[] memory questions,\r\n        Reward[] memory rewards\r\n    ) public payable {\r\n        require(msg.value == pricePool, \"Price pool must be paid in THETA\");\r\n\r\n        Quiz storage newQuiz = quizzes.push();\r\n        newQuiz.title = title;\r\n        newQuiz.description = description;\r\n        newQuiz.imageUrl = imageUrl; // Set image URL\r\n        newQuiz.entranceFee = entranceFee;\r\n        newQuiz.pricePool = pricePool;\r\n        newQuiz.timer = timer;\r\n        newQuiz.organizer = msg.sender;\r\n        newQuiz.isActive = true;\r\n\r\n        for (uint i = 0; i < questions.length; i++) {\r\n            newQuiz.questions.push(Question({\r\n                questionText: questions[i].questionText,\r\n                questionImg: questions[i].questionImg,\r\n                options: questions[i].options,\r\n                correctOption: questions[i].correctOption\r\n            }));\r\n        }\r\n\r\n        for (uint j = 0; j < rewards.length; j++) {\r\n            newQuiz.rewards.push(Reward({\r\n                label: rewards[j].label,\r\n                value: rewards[j].value\r\n            }));\r\n        }\r\n\r\n        emit QuizCreated(quizzes.length - 1, msg.sender, title, description, entranceFee, pricePool, timer);\r\n\r\n        // Transfer THETA from organizer to the contract\r\n        (bool success, ) = thetaToken.call{value: pricePool}(\"\");\r\n        require(success, \"THETA transfer failed\");\r\n    }\r\n\r\n    function participateInQuiz(uint quizId) public payable {\r\n        Quiz storage quiz = quizzes[quizId];\r\n        require(msg.value == quiz.entranceFee, \"Incorrect entrance fee in TFUEL\");\r\n        require(quiz.isActive, \"Quiz is not active\");\r\n        require(!quizParticipants[quizId][msg.sender], \"Already participating\");\r\n\r\n        quizParticipants[quizId][msg.sender] = true;\r\n        emit ParticipantAdded(quizId, msg.sender);\r\n\r\n        // Transfer TFUEL from participant to the contract\r\n        (bool success, ) = tfuelToken.call{value: quiz.entranceFee}(\"\");\r\n        require(success, \"TFUEL transfer failed\");\r\n    }\r\n\r\n    function submitAnswers(uint quizId, uint[] memory answers) public {\r\n        Quiz storage quiz = quizzes[quizId];\r\n        require(quizParticipants[quizId][msg.sender], \"Not a participant\");\r\n        require(quiz.isActive, \"Quiz is not active\");\r\n\r\n        uint correctAnswers = 0;\r\n        for (uint i = 0; i < answers.length; i++) {\r\n            if (answers[i] == quiz.questions[i].correctOption) {\r\n                correctAnswers++;\r\n            }\r\n        }\r\n\r\n        uint percentage = (correctAnswers * 100) / quiz.questions.length;\r\n        uint reward = calculateReward(percentage, quiz.rewards);\r\n\r\n        if (reward > 0 && quiz.pricePool >= reward) {\r\n            quiz.pricePool -= reward;\r\n            payable(msg.sender).transfer(reward);\r\n        }\r\n\r\n        if (quiz.pricePool < quiz.rewards[2].value) {\r\n            quiz.isActive = false;\r\n            emit QuizClosed(quizId);\r\n        }\r\n    }\r\n\r\n    function calculateReward(uint percentage, Reward[] memory rewards) internal pure returns (uint) {\r\n        if (percentage >= 80 && percentage <= 100) {\r\n            return rewards[2].value;\r\n        } else if (percentage >= 70 && percentage <= 79) {\r\n            return rewards[1].value;\r\n        } else if (percentage >= 60 && percentage <= 69) {\r\n            return rewards[0].value;\r\n        } else {\r\n            return 0;\r\n        }\r\n    }\r\n\r\n    function getQuiz(uint quizId) public view returns (\r\n        string memory title,\r\n        string memory description,\r\n        string memory imageUrl, // Added image URL in the return values\r\n        uint entranceFee,\r\n        uint pricePool,\r\n        uint timer,\r\n        bool isActive\r\n    ) {\r\n        Quiz storage quiz = quizzes[quizId];\r\n        return (\r\n            quiz.title,\r\n            quiz.description,\r\n            quiz.imageUrl, // Return image URL\r\n            quiz.entranceFee,\r\n            quiz.pricePool,\r\n            quiz.timer,\r\n            quiz.isActive\r\n        );\r\n    }\r\n\r\n    function getQuizzesCount() public view returns (uint) {\r\n        return quizzes.length;\r\n    }\r\n\r\n    function isParticipant(uint quizId, address participant) public view returns (bool) {\r\n        return quizParticipants[quizId][participant];\r\n    }\r\n}\r\n",
  "sourcePath": "C:\\Users\\John PC\\Desktop\\hacks\\geniusmind\\genius\\contracts\\QuizPlatform.sol",
  "compiler": {
    "name": "solc",
    "version": "0.8.0+commit.c7dfd78e.Emscripten.clang"
  },
  "schemaVersion": "3.4.16",
  "updatedAt": "2024-06-28T12:59:58.310Z",
  "networkType": "ethereum",
  "devdoc": {
    "kind": "dev",
    "methods": {},
    "version": 1
  },
  "userdoc": {
    "kind": "user",
    "methods": {},
    "version": 1
  }
}