{
  "contractName": "QuizPlatform",
  "abi": [
    {
      "anonymous": false,
      "inputs": [
        {
          "indexed": true,
          "internalType": "uint256",
          "name": "quizId",
          "type": "uint256"
        },
        {
          "indexed": true,
          "internalType": "address",
          "name": "participant",
          "type": "address"
        }
      ],
      "name": "ParticipantAdded",
      "type": "event"
    },
    {
      "anonymous": false,
      "inputs": [
        {
          "indexed": true,
          "internalType": "uint256",
          "name": "quizId",
          "type": "uint256"
        }
      ],
      "name": "QuizClosed",
      "type": "event"
    },
    {
      "anonymous": false,
      "inputs": [
        {
          "indexed": true,
          "internalType": "uint256",
          "name": "quizId",
          "type": "uint256"
        },
        {
          "indexed": true,
          "internalType": "address",
          "name": "organizer",
          "type": "address"
        },
        {
          "indexed": false,
          "internalType": "string",
          "name": "title",
          "type": "string"
        },
        {
          "indexed": false,
          "internalType": "string",
          "name": "description",
          "type": "string"
        },
        {
          "indexed": false,
          "internalType": "uint256",
          "name": "entranceFee",
          "type": "uint256"
        },
        {
          "indexed": false,
          "internalType": "uint256",
          "name": "pricePool",
          "type": "uint256"
        },
        {
          "indexed": false,
          "internalType": "uint256",
          "name": "timer",
          "type": "uint256"
        }
      ],
      "name": "QuizCreated",
      "type": "event"
    },
    {
      "inputs": [
        {
          "internalType": "uint256",
          "name": "",
          "type": "uint256"
        },
        {
          "internalType": "address",
          "name": "",
          "type": "address"
        }
      ],
      "name": "quizParticipants",
      "outputs": [
        {
          "internalType": "bool",
          "name": "",
          "type": "bool"
        }
      ],
      "stateMutability": "view",
      "type": "function"
    },
    {
      "inputs": [
        {
          "internalType": "uint256",
          "name": "",
          "type": "uint256"
        }
      ],
      "name": "quizzes",
      "outputs": [
        {
          "internalType": "string",
          "name": "title",
          "type": "string"
        },
        {
          "internalType": "string",
          "name": "description",
          "type": "string"
        },
        {
          "internalType": "uint256",
          "name": "entranceFee",
          "type": "uint256"
        },
        {
          "internalType": "uint256",
          "name": "pricePool",
          "type": "uint256"
        },
        {
          "internalType": "uint256",
          "name": "timer",
          "type": "uint256"
        },
        {
          "internalType": "address",
          "name": "organizer",
          "type": "address"
        },
        {
          "internalType": "bool",
          "name": "isActive",
          "type": "bool"
        }
      ],
      "stateMutability": "view",
      "type": "function"
    },
    {
      "inputs": [],
      "name": "tfuelToken",
      "outputs": [
        {
          "internalType": "address",
          "name": "",
          "type": "address"
        }
      ],
      "stateMutability": "view",
      "type": "function"
    },
    {
      "inputs": [],
      "name": "thetaToken",
      "outputs": [
        {
          "internalType": "address",
          "name": "",
          "type": "address"
        }
      ],
      "stateMutability": "view",
      "type": "function"
    },
    {
      "inputs": [
        {
          "internalType": "string",
          "name": "title",
          "type": "string"
        },
        {
          "internalType": "string",
          "name": "description",
          "type": "string"
        },
        {
          "internalType": "uint256",
          "name": "entranceFee",
          "type": "uint256"
        },
        {
          "internalType": "uint256",
          "name": "pricePool",
          "type": "uint256"
        },
        {
          "internalType": "uint256",
          "name": "timer",
          "type": "uint256"
        },
        {
          "components": [
            {
              "internalType": "string",
              "name": "questionText",
              "type": "string"
            },
            {
              "internalType": "string",
              "name": "questionImg",
              "type": "string"
            },
            {
              "internalType": "string[]",
              "name": "options",
              "type": "string[]"
            },
            {
              "internalType": "uint256",
              "name": "correctOption",
              "type": "uint256"
            }
          ],
          "internalType": "struct QuizPlatform.Question[]",
          "name": "questions",
          "type": "tuple[]"
        },
        {
          "components": [
            {
              "internalType": "string",
              "name": "label",
              "type": "string"
            },
            {
              "internalType": "uint256",
              "name": "value",
              "type": "uint256"
            }
          ],
          "internalType": "struct QuizPlatform.Reward[]",
          "name": "rewards",
          "type": "tuple[]"
        }
      ],
      "name": "createQuiz",
      "outputs": [],
      "stateMutability": "payable",
      "type": "function"
    },
    {
      "inputs": [
        {
          "internalType": "uint256",
          "name": "quizId",
          "type": "uint256"
        }
      ],
      "name": "participateInQuiz",
      "outputs": [],
      "stateMutability": "payable",
      "type": "function"
    },
    {
      "inputs": [
        {
          "internalType": "uint256",
          "name": "quizId",
          "type": "uint256"
        },
        {
          "internalType": "uint256[]",
          "name": "answers",
          "type": "uint256[]"
        }
      ],
      "name": "submitAnswers",
      "outputs": [],
      "stateMutability": "nonpayable",
      "type": "function"
    },
    {
      "inputs": [
        {
          "internalType": "uint256",
          "name": "quizId",
          "type": "uint256"
        }
      ],
      "name": "getQuiz",
      "outputs": [
        {
          "internalType": "string",
          "name": "title",
          "type": "string"
        },
        {
          "internalType": "string",
          "name": "description",
          "type": "string"
        },
        {
          "internalType": "uint256",
          "name": "entranceFee",
          "type": "uint256"
        },
        {
          "internalType": "uint256",
          "name": "pricePool",
          "type": "uint256"
        },
        {
          "internalType": "uint256",
          "name": "timer",
          "type": "uint256"
        },
        {
          "internalType": "bool",
          "name": "isActive",
          "type": "bool"
        }
      ],
      "stateMutability": "view",
      "type": "function"
    },
    {
      "inputs": [],
      "name": "getQuizzesCount",
      "outputs": [
        {
          "internalType": "uint256",
          "name": "",
          "type": "uint256"
        }
      ],
      "stateMutability": "view",
      "type": "function"
    },
    {
      "inputs": [
        {
          "internalType": "uint256",
          "name": "quizId",
          "type": "uint256"
        },
        {
          "internalType": "address",
          "name": "participant",
          "type": "address"
        }
      ],
      "name": "isParticipant",
      "outputs": [
        {
          "internalType": "bool",
          "name": "",
          "type": "bool"
        }
      ],
      "stateMutability": "view",
      "type": "function"
    }
  ],
  "bytecode": "0x6080604052731502b75f0ef25fa1fe5b79594da566047859645e6000806101000a81548173ffffffffffffffffffffffffffffffffffffffff021916908373ffffffffffffffffffffffffffffffffffffffff160217905550731502b75f0ef25fa1fe5b79594da566047859645e600160006101000a81548173ffffffffffffffffffffffffffffffffffffffff021916908373ffffffffffffffffffffffffffffffffffffffff1602179055503480156100b957600080fd5b5061246e806100c96000396000f3fe6080604052600436106100915760003560e01c806388409afa1161005957806388409afa146101805780639f0f8438146101c3578063a3f7e096146101ee578063bf58330a14610230578063f73590a71461025b57610091565b8063084a581814610096578063595fb9e6146100bf57806360ef704f146100db57806362591bbe14610118578063758d9b8914610143575b600080fd5b3480156100a257600080fd5b506100bd60048036038101906100b89190611b1a565b610277565b005b6100d960048036038101906100d49190611ab5565b6106c5565b005b3480156100e757600080fd5b5061010260048036038101906100fd9190611ade565b6109ca565b60405161010f9190611dde565b60405180910390f35b34801561012457600080fd5b5061012d6109f9565b60405161013a9190611dc3565b60405180910390f35b34801561014f57600080fd5b5061016a60048036038101906101659190611ade565b610a1d565b6040516101779190611dde565b60405180910390f35b34801561018c57600080fd5b506101a760048036038101906101a29190611ab5565b610a85565b6040516101ba9796959493929190611e5a565b60405180910390f35b3480156101cf57600080fd5b506101d8610c14565b6040516101e59190612026565b60405180910390f35b3480156101fa57600080fd5b5061021560048036038101906102109190611ab5565b610c21565b60405161022796959493929190611ed7565b60405180910390f35b34801561023c57600080fd5b50610245610dcd565b6040516102529190611dc3565b60405180910390f35b610275600480360381019061027091906119b7565b610df3565b005b6000600283815481106102b3577f4e487b7100000000000000000000000000000000000000000000000000000000600052603260045260246000fd5b906000526020600020906008020190506003600084815260200190815260200160002060003373ffffffffffffffffffffffffffffffffffffffff1673ffffffffffffffffffffffffffffffffffffffff16815260200190815260200160002060009054906101000a900460ff16610360576040517f08c379a000000000000000000000000000000000000000000000000000000000815260040161035790611f46565b60405180910390fd5b8060070160149054906101000a900460ff166103b1576040517f08c379a00000000000000000000000000000000000000000000000000000000081526004016103a890611f66565b60405180910390fd5b6000805b8351811015610475578260050181815481106103fa577f4e487b7100000000000000000000000000000000000000000000000000000000600052603260045260246000fd5b906000526020600020906004020160030154848281518110610445577f4e487b7100000000000000000000000000000000000000000000000000000000600052603260045260246000fd5b6020026020010151141561046257818061045e906122f4565b9250505b808061046d906122f4565b9150506103b5565b506000826005018054905060648361048d91906121aa565b6104979190612179565b9050600061059a8285600601805480602002602001604051908101604052809291908181526020016000905b8282101561059157838290600052602060002090600202016040518060400160405290816000820180546104f6906122c2565b80601f0160208091040260200160405190810160405280929190818152602001828054610522906122c2565b801561056f5780601f106105445761010080835404028352916020019161056f565b820191906000526020600020905b81548152906001019060200180831161055257829003601f168201915b50505050508152602001600182015481525050815260200190600101906104c3565b5050505061133a565b90506000811180156105b0575080846003015410155b1561061857808460030160008282546105c99190612204565b925050819055503373ffffffffffffffffffffffffffffffffffffffff166108fc829081150290604051600060405180830381858888f19350505050158015610616573d6000803e3d6000fd5b505b83600601600281548110610655577f4e487b7100000000000000000000000000000000000000000000000000000000600052603260045260246000fd5b906000526020600020906002020160010154846003015410156106bd5760008460070160146101000a81548160ff021916908315150217905550857f79e9a7dcc542d287d52a353ae39aa2f36a6a96932ff171d2f5742cf7a0869dcf60405160405180910390a25b505050505050565b600060028281548110610701577f4e487b7100000000000000000000000000000000000000000000000000000000600052603260045260246000fd5b9060005260206000209060080201905080600201543414610757576040517f08c379a000000000000000000000000000000000000000000000000000000000815260040161074e90612006565b60405180910390fd5b8060070160149054906101000a900460ff166107a8576040517f08c379a000000000000000000000000000000000000000000000000000000000815260040161079f90611f66565b60405180910390fd5b6003600083815260200190815260200160002060003373ffffffffffffffffffffffffffffffffffffffff1673ffffffffffffffffffffffffffffffffffffffff16815260200190815260200160002060009054906101000a900460ff1615610846576040517f08c379a000000000000000000000000000000000000000000000000000000000815260040161083d90611f86565b60405180910390fd5b60016003600084815260200190815260200160002060003373ffffffffffffffffffffffffffffffffffffffff1673ffffffffffffffffffffffffffffffffffffffff16815260200190815260200160002060006101000a81548160ff0219169083151502179055503373ffffffffffffffffffffffffffffffffffffffff16827f12246ba2398106df92bc0281a1eece14e5b8516c5c3dab76205391650e39fddb60405160405180910390a36000600160009054906101000a900473ffffffffffffffffffffffffffffffffffffffff1673ffffffffffffffffffffffffffffffffffffffff16826002015460405161093f90611dae565b60006040518083038185875af1925050503d806000811461097c576040519150601f19603f3d011682016040523d82523d6000602084013e610981565b606091505b50509050806109c5576040517f08c379a00000000000000000000000000000000000000000000000000000000081526004016109bc90611fc6565b60405180910390fd5b505050565b60036020528160005260406000206020528060005260406000206000915091509054906101000a900460ff1681565b60008054906101000a900473ffffffffffffffffffffffffffffffffffffffff1681565b60006003600084815260200190815260200160002060008373ffffffffffffffffffffffffffffffffffffffff1673ffffffffffffffffffffffffffffffffffffffff16815260200190815260200160002060009054906101000a900460ff16905092915050565b60028181548110610a9557600080fd5b9060005260206000209060080201600091509050806000018054610ab8906122c2565b80601f0160208091040260200160405190810160405280929190818152602001828054610ae4906122c2565b8015610b315780601f10610b0657610100808354040283529160200191610b31565b820191906000526020600020905b815481529060010190602001808311610b1457829003601f168201915b505050505090806001018054610b46906122c2565b80601f0160208091040260200160405190810160405280929190818152602001828054610b72906122c2565b8015610bbf5780601f10610b9457610100808354040283529160200191610bbf565b820191906000526020600020905b815481529060010190602001808311610ba257829003601f168201915b5050505050908060020154908060030154908060040154908060070160009054906101000a900473ffffffffffffffffffffffffffffffffffffffff16908060070160149054906101000a900460ff16905087565b6000600280549050905090565b606080600080600080600060028881548110610c66577f4e487b7100000000000000000000000000000000000000000000000000000000600052603260045260246000fd5b9060005260206000209060080201905080600001816001018260020154836003015484600401548560070160149054906101000a900460ff16858054610cab906122c2565b80601f0160208091040260200160405190810160405280929190818152602001828054610cd7906122c2565b8015610d245780601f10610cf957610100808354040283529160200191610d24565b820191906000526020600020905b815481529060010190602001808311610d0757829003601f168201915b50505050509550848054610d37906122c2565b80601f0160208091040260200160405190810160405280929190818152602001828054610d63906122c2565b8015610db05780601f10610d8557610100808354040283529160200191610db0565b820191906000526020600020905b815481529060010190602001808311610d9357829003601f168201915b505050505094509650965096509650965096505091939550919395565b600160009054906101000a900473ffffffffffffffffffffffffffffffffffffffff1681565b833414610e35576040517f08c379a0000000000000000000000000000000000000000000000000000000008152600401610e2c90611fa6565b60405180910390fd5b60006002600181600181540180825580915050039060005260206000209060080201905087816000019080519060200190610e71929190611473565b5086816001019080519060200190610e8a929190611473565b50858160020181905550848160030181905550838160040181905550338160070160006101000a81548173ffffffffffffffffffffffffffffffffffffffff021916908373ffffffffffffffffffffffffffffffffffffffff16021790555060018160070160146101000a81548160ff02191690831515021790555060005b83518110156110e657816005016040518060800160405280868481518110610f5a577f4e487b7100000000000000000000000000000000000000000000000000000000600052603260045260246000fd5b6020026020010151600001518152602001868481518110610fa4577f4e487b7100000000000000000000000000000000000000000000000000000000600052603260045260246000fd5b6020026020010151602001518152602001868481518110610fee577f4e487b7100000000000000000000000000000000000000000000000000000000600052603260045260246000fd5b6020026020010151604001518152602001868481518110611038577f4e487b7100000000000000000000000000000000000000000000000000000000600052603260045260246000fd5b6020026020010151606001518152509080600181540180825580915050600190039060005260206000209060040201600090919091909150600082015181600001908051906020019061108c929190611473565b5060208201518160010190805190602001906110a9929190611473565b5060408201518160020190805190602001906110c69291906114f9565b5060608201518160030155505080806110de906122f4565b915050610f09565b5060005b82518110156111f95781600601604051806040016040528085848151811061113b577f4e487b7100000000000000000000000000000000000000000000000000000000600052603260045260246000fd5b6020026020010151600001518152602001858481518110611185577f4e487b7100000000000000000000000000000000000000000000000000000000600052603260045260246000fd5b602002602001015160200151815250908060018154018082558091505060019003906000526020600020906002020160009091909190915060008201518160000190805190602001906111d9929190611473565b5060208201518160010155505080806111f1906122f4565b9150506110ea565b503373ffffffffffffffffffffffffffffffffffffffff1660016002805490506112239190612204565b7fe97fa6a747a198343c245b91fece060e32f43d15a00999eac5d21a9780e7bfbc8a8a8a8a8a60405161125a959493929190611df9565b60405180910390a360008060009054906101000a900473ffffffffffffffffffffffffffffffffffffffff1673ffffffffffffffffffffffffffffffffffffffff16866040516112a990611dae565b60006040518083038185875af1925050503d80600081146112e6576040519150601f19603f3d011682016040523d82523d6000602084013e6112eb565b606091505b505090508061132f576040517f08c379a000000000000000000000000000000000000000000000000000000000815260040161132690611fe6565b60405180910390fd5b505050505050505050565b60006050831015801561134e575060648311155b156113a0578160028151811061138d577f4e487b7100000000000000000000000000000000000000000000000000000000600052603260045260246000fd5b602002602001015160200151905061146d565b604683101580156113b25750604f8311155b1561140457816001815181106113f1577f4e487b7100000000000000000000000000000000000000000000000000000000600052603260045260246000fd5b602002602001015160200151905061146d565b603c8310158015611416575060458311155b156114685781600081518110611455577f4e487b7100000000000000000000000000000000000000000000000000000000600052603260045260246000fd5b602002602001015160200151905061146d565b600090505b92915050565b82805461147f906122c2565b90600052602060002090601f0160209004810192826114a157600085556114e8565b82601f106114ba57805160ff19168380011785556114e8565b828001600101855582156114e8579182015b828111156114e75782518255916020019190600101906114cc565b5b5090506114f59190611559565b5090565b828054828255906000526020600020908101928215611548579160200282015b82811115611547578251829080519060200190611537929190611473565b5091602001919060010190611519565b5b5090506115559190611576565b5090565b5b8082111561157257600081600090555060010161155a565b5090565b5b80821115611596576000818161158d919061159a565b50600101611577565b5090565b5080546115a6906122c2565b6000825580601f106115b857506115d7565b601f0160209004906000526020600020908101906115d69190611559565b5b50565b60006115ed6115e884612072565b612041565b9050808382526020820190508260005b8581101561162d57813585016116138882611858565b8452602084019350602083019250506001810190506115fd565b5050509392505050565b600061164a6116458461209e565b612041565b9050808382526020820190508260005b8581101561168a57813585016116708882611882565b84526020840193506020830192505060018101905061165a565b5050509392505050565b60006116a76116a2846120ca565b612041565b9050808382526020820190508260005b858110156116e757813585016116cd888261193e565b8452602084019350602083019250506001810190506116b7565b5050509392505050565b60006117046116ff846120f6565b612041565b9050808382526020820190508285602086028201111561172357600080fd5b60005b85811015611753578161173988826119a2565b845260208401935060208301925050600181019050611726565b5050509392505050565b600061177061176b84612122565b612041565b90508281526020810184848401111561178857600080fd5b611793848285612280565b509392505050565b6000813590506117aa8161240a565b92915050565b600082601f8301126117c157600080fd5b81356117d18482602086016115da565b91505092915050565b600082601f8301126117eb57600080fd5b81356117fb848260208601611637565b91505092915050565b600082601f83011261181557600080fd5b8135611825848260208601611694565b91505092915050565b600082601f83011261183f57600080fd5b813561184f8482602086016116f1565b91505092915050565b600082601f83011261186957600080fd5b813561187984826020860161175d565b91505092915050565b60006080828403121561189457600080fd5b61189e6080612041565b9050600082013567ffffffffffffffff8111156118ba57600080fd5b6118c684828501611858565b600083015250602082013567ffffffffffffffff8111156118e657600080fd5b6118f284828501611858565b602083015250604082013567ffffffffffffffff81111561191257600080fd5b61191e848285016117b0565b6040830152506060611932848285016119a2565b60608301525092915050565b60006040828403121561195057600080fd5b61195a6040612041565b9050600082013567ffffffffffffffff81111561197657600080fd5b61198284828501611858565b6000830152506020611996848285016119a2565b60208301525092915050565b6000813590506119b181612421565b92915050565b600080600080600080600060e0888a0312156119d257600080fd5b600088013567ffffffffffffffff8111156119ec57600080fd5b6119f88a828b01611858565b975050602088013567ffffffffffffffff811115611a1557600080fd5b611a218a828b01611858565b9650506040611a328a828b016119a2565b9550506060611a438a828b016119a2565b9450506080611a548a828b016119a2565b93505060a088013567ffffffffffffffff811115611a7157600080fd5b611a7d8a828b016117da565b92505060c088013567ffffffffffffffff811115611a9a57600080fd5b611aa68a828b01611804565b91505092959891949750929550565b600060208284031215611ac757600080fd5b6000611ad5848285016119a2565b91505092915050565b60008060408385031215611af157600080fd5b6000611aff858286016119a2565b9250506020611b108582860161179b565b9150509250929050565b60008060408385031215611b2d57600080fd5b6000611b3b858286016119a2565b925050602083013567ffffffffffffffff811115611b5857600080fd5b611b648582860161182e565b9150509250929050565b611b7781612238565b82525050565b611b868161224a565b82525050565b6000611b9782612152565b611ba18185612168565b9350611bb181856020860161228f565b611bba816123f9565b840191505092915050565b6000611bd2601183612168565b91507f4e6f742061207061727469636970616e740000000000000000000000000000006000830152602082019050919050565b6000611c12601283612168565b91507f5175697a206973206e6f742061637469766500000000000000000000000000006000830152602082019050919050565b6000611c52601583612168565b91507f416c72656164792070617274696369706174696e6700000000000000000000006000830152602082019050919050565b6000611c92602083612168565b91507f507269636520706f6f6c206d757374206265207061696420696e2054484554416000830152602082019050919050565b6000611cd2601583612168565b91507f544655454c207472616e73666572206661696c656400000000000000000000006000830152602082019050919050565b6000611d12601583612168565b91507f5448455441207472616e73666572206661696c656400000000000000000000006000830152602082019050919050565b6000611d5260008361215d565b9150600082019050919050565b6000611d6c601f83612168565b91507f496e636f727265637420656e7472616e63652066656520696e20544655454c006000830152602082019050919050565b611da881612276565b82525050565b6000611db982611d45565b9150819050919050565b6000602082019050611dd86000830184611b6e565b92915050565b6000602082019050611df36000830184611b7d565b92915050565b600060a0820190508181036000830152611e138188611b8c565b90508181036020830152611e278187611b8c565b9050611e366040830186611d9f565b611e436060830185611d9f565b611e506080830184611d9f565b9695505050505050565b600060e0820190508181036000830152611e74818a611b8c565b90508181036020830152611e888189611b8c565b9050611e976040830188611d9f565b611ea46060830187611d9f565b611eb16080830186611d9f565b611ebe60a0830185611b6e565b611ecb60c0830184611b7d565b98975050505050505050565b600060c0820190508181036000830152611ef18189611b8c565b90508181036020830152611f058188611b8c565b9050611f146040830187611d9f565b611f216060830186611d9f565b611f2e6080830185611d9f565b611f3b60a0830184611b7d565b979650505050505050565b60006020820190508181036000830152611f5f81611bc5565b9050919050565b60006020820190508181036000830152611f7f81611c05565b9050919050565b60006020820190508181036000830152611f9f81611c45565b9050919050565b60006020820190508181036000830152611fbf81611c85565b9050919050565b60006020820190508181036000830152611fdf81611cc5565b9050919050565b60006020820190508181036000830152611fff81611d05565b9050919050565b6000602082019050818103600083015261201f81611d5f565b9050919050565b600060208201905061203b6000830184611d9f565b92915050565b6000604051905081810181811067ffffffffffffffff82111715612068576120676123ca565b5b8060405250919050565b600067ffffffffffffffff82111561208d5761208c6123ca565b5b602082029050602081019050919050565b600067ffffffffffffffff8211156120b9576120b86123ca565b5b602082029050602081019050919050565b600067ffffffffffffffff8211156120e5576120e46123ca565b5b602082029050602081019050919050565b600067ffffffffffffffff821115612111576121106123ca565b5b602082029050602081019050919050565b600067ffffffffffffffff82111561213d5761213c6123ca565b5b601f19601f8301169050602081019050919050565b600081519050919050565b600081905092915050565b600082825260208201905092915050565b600061218482612276565b915061218f83612276565b92508261219f5761219e61236c565b5b828204905092915050565b60006121b582612276565b91506121c083612276565b9250817fffffffffffffffffffffffffffffffffffffffffffffffffffffffffffffffff04831182151516156121f9576121f861233d565b5b828202905092915050565b600061220f82612276565b915061221a83612276565b92508282101561222d5761222c61233d565b5b828203905092915050565b600061224382612256565b9050919050565b60008115159050919050565b600073ffffffffffffffffffffffffffffffffffffffff82169050919050565b6000819050919050565b82818337600083830152505050565b60005b838110156122ad578082015181840152602081019050612292565b838111156122bc576000848401525b50505050565b600060028204905060018216806122da57607f821691505b602082108114156122ee576122ed61239b565b5b50919050565b60006122ff82612276565b91507fffffffffffffffffffffffffffffffffffffffffffffffffffffffffffffffff8214156123325761233161233d565b5b600182019050919050565b7f4e487b7100000000000000000000000000000000000000000000000000000000600052601160045260246000fd5b7f4e487b7100000000000000000000000000000000000000000000000000000000600052601260045260246000fd5b7f4e487b7100000000000000000000000000000000000000000000000000000000600052602260045260246000fd5b7f4e487b7100000000000000000000000000000000000000000000000000000000600052604160045260246000fd5b6000601f19601f8301169050919050565b61241381612238565b811461241e57600080fd5b50565b61242a81612276565b811461243557600080fd5b5056fea2646970667358221220210e514e62b25e33b1b81e0ecb1393495a465b9d0e2dbc9c466eb3a7becb85d664736f6c63430008000033",
  "immutableReferences": {},
  "source": "// SPDX-License-Identifier: MIT\r\npragma solidity ^0.8.0;\r\n\r\ncontract QuizPlatform {\r\n    address public thetaToken = 0x1502B75f0eF25Fa1Fe5b79594da566047859645e;\r\n    address public tfuelToken = 0x1502B75f0eF25Fa1Fe5b79594da566047859645e; \r\n\r\n    struct Question {\r\n        string questionText;\r\n        string questionImg;\r\n        string[] options;\r\n        uint correctOption;\r\n    }\r\n\r\n    struct Reward {\r\n        string label;\r\n        uint value;\r\n    }\r\n\r\n    struct Quiz {\r\n        string title;\r\n        string description;\r\n        uint entranceFee;\r\n        uint pricePool;\r\n        uint timer;\r\n        Question[] questions;\r\n        Reward[] rewards;\r\n        address organizer;\r\n        bool isActive;\r\n    }\r\n\r\n    Quiz[] public quizzes;\r\n    mapping(uint => mapping(address => bool)) public quizParticipants;\r\n\r\n    event QuizCreated(uint indexed quizId, address indexed organizer, string title, string description, uint entranceFee, uint pricePool, uint timer);\r\n    event ParticipantAdded(uint indexed quizId, address indexed participant);\r\n    event QuizClosed(uint indexed quizId);\r\n\r\n    function createQuiz(\r\n        string memory title,\r\n        string memory description,\r\n        uint entranceFee,\r\n        uint pricePool,\r\n        uint timer,\r\n        Question[] memory questions,\r\n        Reward[] memory rewards\r\n    ) public payable {\r\n        require(msg.value == pricePool, \"Price pool must be paid in THETA\");\r\n\r\n        Quiz storage newQuiz = quizzes.push();\r\n        newQuiz.title = title;\r\n        newQuiz.description = description;\r\n        newQuiz.entranceFee = entranceFee;\r\n        newQuiz.pricePool = pricePool;\r\n        newQuiz.timer = timer;\r\n        newQuiz.organizer = msg.sender;\r\n        newQuiz.isActive = true;\r\n\r\n        for (uint i = 0; i < questions.length; i++) {\r\n            newQuiz.questions.push(Question({\r\n                questionText: questions[i].questionText,\r\n                questionImg: questions[i].questionImg,\r\n                options: questions[i].options,\r\n                correctOption: questions[i].correctOption\r\n            }));\r\n        }\r\n\r\n        for (uint j = 0; j < rewards.length; j++) {\r\n            newQuiz.rewards.push(Reward({\r\n                label: rewards[j].label,\r\n                value: rewards[j].value\r\n            }));\r\n        }\r\n\r\n        emit QuizCreated(quizzes.length - 1, msg.sender, title, description, entranceFee, pricePool, timer);\r\n\r\n        // Transfer THETA from organizer to the contract\r\n        (bool success, ) = thetaToken.call{value: pricePool}(\"\");\r\n        require(success, \"THETA transfer failed\");\r\n    }\r\n\r\n    function participateInQuiz(uint quizId) public payable {\r\n        Quiz storage quiz = quizzes[quizId];\r\n        require(msg.value == quiz.entranceFee, \"Incorrect entrance fee in TFUEL\");\r\n        require(quiz.isActive, \"Quiz is not active\");\r\n        require(!quizParticipants[quizId][msg.sender], \"Already participating\");\r\n\r\n        quizParticipants[quizId][msg.sender] = true;\r\n        emit ParticipantAdded(quizId, msg.sender);\r\n\r\n        // Transfer TFUEL from participant to the contract\r\n        (bool success, ) = tfuelToken.call{value: quiz.entranceFee}(\"\");\r\n        require(success, \"TFUEL transfer failed\");\r\n    }\r\n\r\n    function submitAnswers(uint quizId, uint[] memory answers) public {\r\n        Quiz storage quiz = quizzes[quizId];\r\n        require(quizParticipants[quizId][msg.sender], \"Not a participant\");\r\n        require(quiz.isActive, \"Quiz is not active\");\r\n\r\n        uint correctAnswers = 0;\r\n        for (uint i = 0; i < answers.length; i++) {\r\n            if (answers[i] == quiz.questions[i].correctOption) {\r\n                correctAnswers++;\r\n            }\r\n        }\r\n\r\n        uint percentage = (correctAnswers * 100) / quiz.questions.length;\r\n        uint reward = calculateReward(percentage, quiz.rewards);\r\n\r\n        if (reward > 0 && quiz.pricePool >= reward) {\r\n            quiz.pricePool -= reward;\r\n            payable(msg.sender).transfer(reward);\r\n        }\r\n\r\n        if (quiz.pricePool < quiz.rewards[2].value) {\r\n            quiz.isActive = false;\r\n            emit QuizClosed(quizId);\r\n        }\r\n    }\r\n\r\n    function calculateReward(uint percentage, Reward[] memory rewards) internal pure returns (uint) {\r\n        if (percentage >= 80 && percentage <= 100) {\r\n            return rewards[2].value;\r\n        } else if (percentage >= 70 && percentage <= 79) {\r\n            return rewards[1].value;\r\n        } else if (percentage >= 60 && percentage <= 69) {\r\n            return rewards[0].value;\r\n        } else {\r\n            return 0;\r\n        }\r\n    }\r\n\r\n    function getQuiz(uint quizId) public view returns (\r\n        string memory title,\r\n        string memory description,\r\n        uint entranceFee,\r\n        uint pricePool,\r\n        uint timer,\r\n        bool isActive\r\n    ) {\r\n        Quiz storage quiz = quizzes[quizId];\r\n        return (\r\n            quiz.title,\r\n            quiz.description,\r\n            quiz.entranceFee,\r\n            quiz.pricePool,\r\n            quiz.timer,\r\n            quiz.isActive\r\n        );\r\n    }\r\n\r\n    function getQuizzesCount() public view returns (uint) {\r\n        return quizzes.length;\r\n    }\r\n\r\n    function isParticipant(uint quizId, address participant) public view returns (bool) {\r\n        return quizParticipants[quizId][participant];\r\n    }\r\n}\r\n",
  "sourcePath": "C:\\Users\\John PC\\Desktop\\hacks\\geniusmind\\genius\\contracts\\QuizPlatform.sol",
  "compiler": {
    "name": "solc",
    "version": "0.8.0+commit.c7dfd78e.Emscripten.clang"
  },
  "schemaVersion": "3.4.16",
  "updatedAt": "2024-06-28T01:55:37.632Z",
  "devdoc": {
    "kind": "dev",
    "methods": {},
    "version": 1
  },
  "userdoc": {
    "kind": "user",
    "methods": {},
    "version": 1
  }
}